:020000040800F2
:10000000F80A002001020008F95E0008FB5E000803
:10001000FF5E0008035F0008075F000800000000A3
:100020000000000000000000000000000B5F00085E
:100030000D5F0008000000000F5F0008115F00085E
:100040001B0200081B0200081B0200081B0200081C
:100050001B0200081B0200081B0200081B0200080C
:100060001B0200081B0200081B0200081B020008FC
:100070001B0200081B0200081B0200081B020008EC
:100080001B0200081B020008A15F00081B020008F9
:100090001B0200081B0200081B0200081B020008CC
:1000A0001B0200081B0200081B0200081B020008BC
:1000B000895F00081B020008955F00081B0200080A
:1000C0001B0200081B0200081B0200081B0200089C
:1000D0001B020008195F00081B0200081B02000831
:1000E0001B0200081B0200081B02000800F002F8B7
:1000F00000F077F80AA090E8000C82448344AAF14B
:100100000107DA4501D100F06CF8AFF2090EBAE848
:100110000F0013F0010F18BFFB1A43F0010318473B
:10012000A0A30000C0A300000A444FF0000C10F888
:10013000013B13F0070408BF10F8014B1D1108BF65
:1001400010F8015B641E05D010F8016B641E01F805
:10015000016BF9D113F0080F1EBF10F8014BAD1C55
:100160000C1B09D16D1E58BF01F801CBFAD505E073
:1001700014F8016B01F8016B6D1EF9D59142D6D3CD
:10018000704700000023002400250026103A28BFF5
:1001900078C1FBD8520728BF30C148BF0B607047F9
:1001A000662909F0F881642906F05880632906F071
:1001B0000C84002070471FB509F03BF99DE803004F
:1001C00006F086FF06F04AFC04000020002108F03B
:1001D00015F9E06006F04CFD1FBD10B506F0B1FD4D
:1001E00010BD06F03FFE1146FFF7E5FF05F0FAFEF1
:1001F00006F042FF03B4FFF7F0FF03BC07F0FEF880
:100200000948804709480047FEE7FEE7FEE7FEE7AA
:10021000FEE7FEE7FEE7FEE7FEE7FEE704480549E6
:10022000054A064B704700009D040008ED000008D9
:10023000F8040020F80A0020F8060020F806002044
:1002400010B50121084605F0DFFD0121044805F045
:10025000F5FD012145F20D2005F0E3FD10BD000084
:100260000700260022490968224AB1FBF2F0B0F1EA
:10027000807F01D301211CE020F07F41491E4FF017
:10028000E022516100BF5117002905DA0F21090151
:10029000194A0B23D15404E00F210901174A5317BF
:1002A000D15400BF00214FF0E0229161072111617C
:1002B000002109B100BFFEE770471149086000BF87
:1002C0000F4909680029FBD1704700B502464FF479
:1002D0007A7102FB01F0FFF7F0FF00BD08480068EB
:1002E00020B107480068401E054908607047704704
:1002F0000800002040420F0018ED00E000E400E09C
:100300000000002010B52F4805F01EFA4FF40070D1
:100310002D4908801820C870032088702B4804F0ED
:10032000EFF94FF48060284908800420C8702748FE
:1003300004F0E6F94FF4E130254908600020888098
:10034000C880088188810C2048811E4805F03FFA4A
:10035000012240F225511B4805F0D1FA012119482C
:1003600005F0C1FA10BD08B54FF4E06003F0CCFE13
:1003700025208DF8000000208DF8020001208DF866
:100380000300684603F0C5FE08BD70B504460D467F
:10039000A1B20C4805F017FB00BF4021094805F049
:1003A00080FB0028F9D0204670BD10B5044600BF80
:1003B0002021044805F075FB0028F9D0014805F01C
:1003C00006FB10BD00380140040000200008014079
:1003D0008802002000210020674A126842F480321F
:1003E000654B1A6000BF644A126802F40030491C71
:1003F00010B9B1F5A06FF6D15F4A126812F4003F50
:1004000001D0012000E00020012842D15B4A12689F
:1004100042F01002594B1A601A46126822F0030289
:100420001A601A46126842F002021A60524A526872
:10043000514B5A601A4652685A601A46526842F442
:1004400080625A601A46526822F47C125A601A4638
:10045000526842F4E8125A601A46126842F08072FA
:100460001A6000BF444A126812F0007FFAD0424A74
:10047000526822F00302404B5A601A46526842F01A
:1004800002025A6000BF3C4A526802F00C02082A7D
:10049000F9D1704710B5FFF79DFF10BD10B5364874
:1004A000006840F00100344908600846406834495B
:1004B00008403149486008460068324908402E49E2
:1004C00008600846006820F48020086008464068FC
:1004D00020F4FE0048604FF41F008860FFF7DAFF49
:1004E0004FF000602849086010BD10B500210020C1
:1004F0000022214B5B6803F00C0121B1042906D0D6
:10050000082928D107E0214B214C236027E01F4B0D
:100510001F4C236023E0184B5B6803F47010164BEC
:100520005B6803F48032022303EB904022B9194B3D
:100530004343174C23600DE00F4B5B6813F4003FFF
:1005400004D0144B4343124C236003E00F4B43434E
:100550000F4C236003E00D4B0D4C236000BF00BF28
:10056000054B5B68C3F303130B4CE15C084B1B6842
:10057000CB40074C236010BD001002400020024019
:100580000000FFF8FFFFF6FE08ED00E000127A0021
:100590000800002000093D000C00002000B587B0D5
:1005A00000208DF81B002020ADF8180002208DF8E7
:1005B0001A0006A9214804F0A3F801208DF80900CB
:1005C000002004904FF4602003900020019001204F
:1005D0008DF8140000208DF8080001A9184803F0D8
:1005E00036FE002301220521154803F0C8FE012133
:1005F000134803F058FE0121114803F094FE07B0A0
:1006000000BD08B512208DF8000001208DF8030010
:1006100000208DF801008DF80200684603F079FD96
:1006200008BD10B500BF0221054803F0D4FF002823
:10063000F9D0034803F00AFF10BD00000008014094
:100640000024014000B587B004208DF81B00032072
:10065000ADF818008DF81A0006A95E4804F050F8AD
:100660004FF0804004F098F90020ADF81200ADF88A
:100670000E004FF6FF70ADF810000020ADF80C0032
:1006800003A94FF0804004F05BFA00231A460321CF
:100690004FF0804004F045FE684604F06EFD0620F1
:1006A000ADF8080069464FF0804004F0BAFC012123
:1006B000880705F031F801221146900704F095FDF6
:1006C00000204FF0804188840121880704F067FDF5
:1006D00007B000BD00B587B004208DF81B00C02016
:1006E000ADF8180003208DF81A0006A93A4804F066
:1006F00007F83A4804F050F90020ADF81200ADF8C0
:100700000E004FF6FF70ADF810000020ADF80C00A1
:1007100003A9324804F014FA00231A4603212F4893
:1007200004F0FFFD684604F028FD0620ADF808003F
:1007300069462A4804F075FC0121284804F0ECFFC2
:1007400001221146254804F050FD0020244908806C
:100750004FF00101214804F022FD07B000BD10B5A3
:10076000FFF770FFFFF7B6FF10BD10B54FF08040E8
:1007700004F0C3FF10BD10B5184804F0BEFF10BD53
:1007800008B54FF4E06003F0BFFC1C208DF80000BA
:1007900000208DF8020001208DF80300684603F068
:1007A000B8FC08BD08B54FF4E06003F0ADFC1E20B6
:1007B0008DF8000000208DF8020001208DF8030064
:1007C000684603F0A6FC08BD10B5FFF7D9FFFFF798
:1007D000E9FF10BD00080140000C01400008004086
:1007E0002408004008B502208DF8020010208DF882
:1007F00003000001ADF8000069460B4803F080FFDC
:100800004FF48071084804F026F808BD10B54FF485
:100810008071054804F021F810BD10B54FF48071C7
:10082000014804F018F810BD000C014000B589B073
:1008300018208DF823000320ADF820008DF8220049
:1008400008A95D4803F05CFF0020ADF81A00ADF880
:10085000160040F60F60ADF818000020ADF8140047
:1008600005A9564804F06CF96020ADF80400012099
:10087000ADF806000020ADF80C0001A94F4804F0C7
:1008800027FA08214D4804F0D7FD0120ADF80800F3
:1008900001A94A4804F063FA0821484804F0D5FD4C
:1008A0000121464804F07BFC09B000BD08B51020CA
:1008B0008DF803004FF44050ADF8000003208DF890
:1008C000020069463C4803F01BFF08BD08B5102034
:1008D0008DF803004FF44040ADF8000003208DF880
:1008E00002006946344803F00BFF08BD10B54FF411
:1008F0008051314803F0B1FF4FF400512E4803F00E
:10090000ACFF4FF480412C4803F0A7FF4FF40041A7
:10091000294803F0A2FF10BD10B5FFF787FFFFF7CE
:10092000C5FFFFF7D3FFFFF7E1FF0021234804F0E5
:10093000C9FE0021214804F0C7FE10BD70B5044671
:100940000D46002C0ADD4FF480511B4803F083FF55
:100950004FF40051184803F080FF0BE04FF4805132
:10096000154803F07AFF4FF40051134803F073FF6A
:10097000604284B2002D0ADD4FF480410E4803F03E
:100980006AFF4FF400410C4803F067FF0BE04FF49F
:100990008041094803F061FF4FF40041064803F02D
:1009A0005AFF684285B22146044804F08BFE29466E
:1009B000024804F089FE70BD000C014000040040B4
:1009C00038B50446FB4890F82400C0B114B10220A9
:1009D000009001E000200090F64A1268D17BF54AB1
:1009E000526810786B46012203F05BFB10B14FF0A8
:1009F000FF3038BD9DF80010EE48417423E0ED480B
:100A0000807A10B94FF0FF30F3E724B1E948407C19
:100A100008B10020EDE714B10120009001E00020B2
:100A20000090E44A1268D17BE24A526810786B4623
:100A3000012203F036FB10B14FF0FF30D9E79DF8EB
:100A40000010DC4841740020D3E738B5002419E0D9
:100A5000D8480068C07AA04204D0D6480068407DDB
:100A6000A04200D10CE0D349496808786B460122C6
:100A7000214603F0C8FA10B14FF0FF3038BD00BF77
:100A8000601CC4B2CB4840680079A042E0DC002082
:100A9000F4E770B504460D46C6480068C07AA04227
:100AA00004D0C4480068407DA04202D14FF0FF301E
:100AB00070BDC04840680079A04202DC4FF0FF30B2
:100AC000F6E7BC49496808782B460122214603F025
:100AD0009AFAEDE738B50446B64890F82300A042EC
:100AE00001D1002038BD14B13020009001E0002079
:100AF0000090B048807C20B19DF8000040F00200DA
:100B00000090AC4890F8220020B19DF8000040F021
:100B100080000090A74A1268117DA64A526810789A
:100B20006B46012203F0BDFA10B14FF0FF30D9E758
:100B3000A04880F823400020D4E738B5044614F0DC
:100B4000700F02D00120009005E014B10020009049
:100B500001E040200090974A1268917C954A5268C3
:100B600010786B46012203F09CFA20B100219148D5
:100B70008172481E38BD9DF8000020F040008D496C
:100B800008730020009014F0400F04D19DF800007D
:100B900040F00400009014F0200F04D19DF80000F4
:100BA00040F00200009014F0100F04D19DF80000F6
:100BB00040F00100009014F0080F04D19DF80000EF
:100BC00040F0380000907B4A1268D17C794A526824
:100BD00010786B46012203F064FA20B100217548B9
:100BE0008172481EC6E724B1082C02D00020FFF70E
:100BF00071FF70488472002101753220FFF765FB98
:100C00000020B7E738B504466A48807CA04201D18D
:100C1000002038BDF4B3674A12681179654A5268FA
:100C200010786B46012203F0EEF910B14FF0FF305F
:100C3000EFE79DF8000020F0200000905D4A126868
:100C400011795C4A526810786B46012203F029FA48
:100C500010B14FF0FF30DCE70320FFF736FB022036
:100C60000090544890F8220020B19DF8000040F018
:100C7000800000904F4890F8230020B19DF80000BC
:100C800040F0300000904B4A1268117D494A52688A
:100C9000107800E007E06B46012203F002FAC0B3CF
:100CA0004FF0FF30B5E7434A12681179414A526864
:100CB00010786B46012203F0A6F910B14FF0FF3017
:100CC000A7E73C48807A10F0010F05D09DF800009E
:100CD00040F02000009004E09DF8000020F020008B
:100CE0000090344A12681179324A526810786B4683
:100CF000012203F0D6F910B14FF0FF3089E703204D
:100D0000FFF7E3FA2B4890F8220018B180200090FA
:100D100002E018E000200090264890F8230020B15F
:100D20009DF8000040F030000090224A1268117DCA
:100D3000204A526810786B46012203F0B2F910B1D4
:100D40004FF0FF3065E71B488474002061E708B569
:100D50001848807A10B94FF0FF3008BD002000908D
:100D6000144A1268D17B134A526810786B460122EC
:100D700003F097F910B14FF0FF30EEE70D4A12681B
:100D800051790C4A526810786B46012203F089F9B8
:100D900010B14FF0FF30E0E7064A12681179054ABA
:100DA000526810786B46012203F07BF920B14FF0B6
:100DB000FF30D2E71C000020F84890F8240090B3E0
:100DC0000C200090F54A12681179F44A52681078A4
:100DD0006B46012203F065F910B14FF0FF30BCE71C
:100DE0003220FFF772FAC0200090EC48807A10F0B1
:100DF000010F04D09DF8000040F020000090E74A69
:100E000012681179E54A526810786B46012203F0A6
:100E100048F910B14FF0FF309FE7E048407C18B12F
:100E20000220009002E01FE000200090DB4A1268E0
:100E3000D17BDA4A526810786B46012203F031F90F
:100E400010B14FF0FF3088E700200090D34A1268BD
:100E50005179D24A526810786B46012203F021F989
:100E6000B0B34FF0FF3078E704200090CB4A12680F
:100E70001179CA4A526810786B46012203F011F9C1
:100E800010B14FF0FF3068E7C448807C20B9C348F8
:100E9000807A10F0010F02D14020009001E0602024
:100EA0000090BE4A12681179BC4A526810786B46AD
:100EB000012203F0F6F810B14FF0FF304DE7322079
:100EC000FFF703FAB548407C18B10120009002E01A
:100ED0001EE000200090B14A1268D17BAF4A5268F0
:100EE00010786B46012203F0DCF810B14FF0FF30B0
:100EF00033E7AA4A12685179A84A52681078A74B7A
:100F00001033012203F0CDF810B14FF0FF3024E789
:100F1000002022E770B50446002624F001049F4813
:100F200090F8240008B1002070BD9C48807A10B968
:100F30004FF0FF30F8E79948057C807A20409749C8
:100F400008740846007CA04202D04FF0FF3600E053
:100F5000002614B99148007D18B10120FFF730FD3B
:100F600002E00020FFF72CFD3CB1FFF7F0FE20B1BE
:100F70008A4805744FF0FF30D6E73046D4E738B5DD
:100F800004468648807A10B94FF0FF3038BDBC2C3B
:100F900002DB0120009015E0622C02DB02200090B1
:100FA00010E02A2C02DB032000900BE0142C02DB63
:100FB0000420009006E00A2C02DB0520009001E0EE
:100FC000062000907548C07A9DF80010884201D133
:100FD0000020DBE7714A12689178704A52681078F5
:100FE0006B46012203F05DF810B14FF0FF30CDE702
:100FF0009DF800106948C1720020C7E738B5044663
:10100000282C02DD4FF0FF3038BDDCB90020FFF79F
:1010100061FD00208DF8000007208DF801005F4A77
:101020001268917C5D4A526810786B46022203F088
:1010300038F810B14FF0FF30E6E70021574801754E
:101040000020E1E70120FFF745FD20208DF800009A
:10105000012C06D100208DF801000520FFF78FFF3D
:1010600017E0052C06DC01208DF801000520FFF7B4
:1010700086FF0EE0142C06DC02208DF801000A2009
:10108000FFF77DFF05E003208DF801001420FFF736
:1010900076FF9DF80100072101EB8010C0B28DF8AA
:1010A00001003E4A1268917C3C4A526810786B46B7
:1010B000022202F0F6FF10B14FF0FF30A4E7082142
:1010C0003648817200210173012101750020FFF76C
:1010D00021FF002098E738B504463048807A10B9DF
:1010E0004FF0FF3038BD2D4890F8240010B14FF07C
:1010F000FF30F7E72948007D50B134B1282C04DCDB
:10110000E0B2FFF77BFF0020ECE70020FFF776FF5F
:10111000042C01DA042404E0B4F57A7F01DD4FF4F5
:101120007A744FF47A7090FBF4F0401EC0B20090D5
:101130001A4A12685178194A526810786B4601228F
:1011400002F0AFFF10B14FF0FF30CBE79DF8000089
:10115000401C4FF47A7191FBF0F081B20F48C181CD
:101160000146C9894810FFF70AFF0020BAE738B5E1
:1011700004460A48807A10B94FF0FF3038BD022C7F
:1011800006D0042C07D0082C0AD0102C0ED10AE06F
:10119000002000900DE0082000900AE01C000020D4
:1011A0001020009005E01820009002E04FF0FF3082
:1011B000E4E700BFF948407A9DF80010B0EBE10F7A
:1011C00001D10020DAE7F54A1268D179F34A526872
:1011D00010786B46012202F064FF10B14FF0FF302F
:1011E000CCE79DF80000C010EC4948720020C5E72C
:1011F00038B50446E948807A10B94FF0FF3038BD61
:10120000FA2C09D0B4F5FA7F09D0B4F57A7F09D069
:10121000B4F5FA6F0CD108E0002000900BE0082034
:10122000009008E01020009005E01820009002E0F7
:101230004FF0FF30E3E700BFD848007A9DF8001078
:10124000B0EBE10F01D10020D9E7D44A12689179BF
:10125000D24A526810786B46012202F022FF10B188
:101260004FF0FF30CBE79DF80000C010CB4908726B
:101270000020C4E71CB580208DF80000C74A126822
:10128000917CC64A526810786B46012202F009FF31
:1012900010B14FF0FF301CBD6420FFF716F800209E
:1012A0008DF80000BD4A1268917CBC4A52681078E3
:1012B0006B46012202F0F5FE10B14FF0FF30EAE775
:1012C000B64A1268917DB54A526810786B4606227C
:1012D00002F099FE10B14FF0FF30DCE79DF80500F9
:1012E000C007400F9DF8031001F0010140EA4100E2
:1012F0009DF8011001F0010140EA01048CB1012CBC
:1013000003D10121A548C17430E0022C03D1002192
:10131000A248C1742AE0A2A004F022FF4FF0FF30DF
:10132000B9E79E4A1268D1789C4A526810786B4699
:10133000012202F068FE10B14FF0FF30ABE79DF8DC
:10134000000000F00F042CB99E4804F009FF4FF094
:10135000FF30A0E7042C06D19BA004F001FF01217F
:101360008E48C17402E000218C48C174FF218B4873
:101370008172FF2089490872FF2188484172C17239
:101380004FF6FF71C181FF21017481740121017346
:1013900080F82210002180F8231041750175083073
:1013A000C0F80E10C0F81210C0F81610083880F8F7
:1013B000241080F82510C1844FF4FA60FFF718FF5D
:1013C00010B14FF0FF3066E70220FFF7D0FE10B1FA
:1013D0004FF0FF305FE72A20FFF7D1FD10B14FF04B
:1013E000FF3058E73220FFF776FE10B14FF0FF30A4
:1013F00051E70020FFF78EFD10B14FF0FF304AE7B4
:101400000020FFF7FFFB10B14FF0FF3043E7002053
:10141000FFF793FB00203EE77CB504460D465F488E
:10142000807A10F0700F02D14FF0FF307CBD5B4A24
:101430001268117B594A526810786B46062202F0F6
:10144000E2FD10B14FF0FF30F0E79DF801009DF88C
:10145000001040EA012000B220809DF803009DF8B2
:10146000021040EA012000B260809DF805009DF85E
:10147000041040EA012000B2A08015B12846FEF712
:1014800036FF0020D2E77CB504460D464348807AFB
:1014900010F0080F02D14FF0FF307CBD3F4A1268B8
:1014A000517B3E4A526810786B46062202F0ABFD33
:1014B00010B14FF0FF30F0E79DF801009DF80010EB
:1014C00040EA012000B220809DF803009DF8021040
:1014D00040EA012000B260809DF805009DF80410EC
:1014E00040EA012000B2A08015B12846FEF7FFFEB9
:1014F0000020D2E72DE9FE4F05460C462748807AAA
:1015000018B94FF0FF30BDE8FE8F244A1268917B76
:10151000224A5268107802AB022202F074FD10B128
:101520004FF0FF30EFE79DF809009DF8081040EA02
:10153000012006B214B12046FEF7D9FE17494968CA
:10154000C88807F067FE154901904968B1F908009D
:1015500007F048FE8346304607F044FE59460090A7
:1015600007F0A4FF8246019907F00AFD81461E4953
:1015700007F098FC80464FF08F4107F093FE074636
:1015800007F0F4FD28600020BDE710B588B00446E0
:101590001CB94FF0FF3008B010BD27E01C00002040
:1015A000556E737570706F7274656420736F6674B6
:1015B000776172652070726F6475637420726576EE
:1015C000202E0A00E096000848616C662073656E64
:1015D0007369746976697479207061727420666FBA
:1015E000756E642E0A00000000000C42206830B9BD
:1015F000606820B9A06810B9002008B010BDFA4991
:101600004968087806AB0322114602F0FCFC10B1D1
:101610004FF0FF30F1E79DF81800082101EB201092
:1016200000F00F00ADF800009DF8190001EB20104C
:1016300000F00F00ADF802009DF81A0001EB201039
:1016400000F00F00ADF8040020684100BDF9000073
:10165000403091FBF0F000B2ADF81000606841003E
:10166000BDF90200403091FBF0F000B2ADF812007D
:10167000A0684100BDF90400403091FBF0F000B2D9
:10168000ADF81400D8494968087806AB062211461F
:1016900002F0B9FC10B14FF0FF30AEE79DF8190031
:1016A0009DF8181040EA012000B2ADF808009DF83E
:1016B0001B009DF81A1040EA012000B2ADF80A00A4
:1016C0009DF81D009DF81C1040EA012000B2ADF805
:1016D0000C00BDF81000BDF80810084400B2ADF8C9
:1016E0001000BDF81200BDF80A10084400B2ADF8B1
:1016F0001200BDF81400BDF80C10084400B2ADF89B
:101700001400BDF81000000A8DF81800BDF8100094
:10171000C0B28DF81900BDF81200000A8DF81A0049
:10172000BDF81200C0B28DF81B00BDF81400000A0D
:101730008DF81C00BDF81400C0B28DF81D00AA4938
:101740004968087806AB0622114602F0AAFC10B1DF
:101750004FF0FF3051E700204FE70146A248007AE2
:1017600030B1012807D0022809D003280FD10AE0A0
:10177000FA2008800EE04FF4FA7008800AE04FF477
:101780007A70088006E04FF4FA60088002E00020DA
:10179000088000BF00BF0020704701469248407A91
:1017A00030B1012807D0022808D003280CD108E066
:1017B000022008700BE00420087008E00820087080
:1017C00005E01020087002E04FF0FF30704700BFC6
:1017D0008548C07C18B108784006000E08700020CB
:1017E000F4E701468048C07A082817D2DFE800F005
:1017F0001704070A0D101318BC20088013E062209C
:10180000088010E02A2008800DE0142008800AE0FB
:101810000A20088007E00520088004E000BF00BF20
:101820000020088000BF00BF0020704701466E48BE
:1018300090F8240010B14FF0FF3070476A48C0891B
:1018400008800020F9E7014600200880401E70470C
:1018500001464FF0FF30704701466348007A30B1CF
:10186000012807D0022808D003280CD108E05F48DF
:1018700008600BE05E48086008E05E48086005E02C
:101880005D48086002E04FF0FF30704700BF002065
:10189000FBE701465448407A30B1012808D00228BD
:1018A0000AD0032810D10BE04FF4804008800EE0EE
:1018B00041F69C7008800AE04FF48050088006E0F2
:1018C0004FF40060088002E04FF0FF30704700BF27
:1018D0004548C07C10B10888401008800020F5E71A
:1018E00001464148007C08700020704701463E4890
:1018F000807A10B10120087001E0002008700020FB
:10190000704738B504463848807A10B94FF0FF3038
:1019100038BD354A1268117C334A526810786B46DC
:10192000022202F070FB10B14FF0FF30F0E79DF89B
:1019300001009DF8001040EA012000B22080002044
:10194000E6E72DE9FE4F8046894692461D46DDF8C2
:1019500030B000260024244890F8240010B1601E06
:10196000BDE8FE8F002028701F48807A10B94FF024
:10197000FF30F5E71C48007C10B94FF0FF30EFE76F
:101980001948007C10F0400F01D0B01CC6B21648B8
:10199000007C10F0200F01D0B01CC6B21248007CB1
:1019A00010F0100F01D0B01CC6B20F48007C10F030
:1019B000080F01D0B01DC6B20B4A1268917A0A4ACC
:1019C000526810786B46022202F01DFB10B14FF0F6
:1019D000FF30C5E79DF801009DF8001040EA01279F
:1019E000B7420BDA0020BBE71C00002000000343D5
:1019F000000083423333034233338341FB48406862
:101A00004088B7EB600F17DDF84A1268517CF74A3F
:101A1000526810786B46012202F0F5FA10B14FF0CF
:101A2000FF309DE79DF8000010F0100F04D0FFF785
:101A30008EF96FF0010093E75046FEF758FCEB4A31
:101A40001268D17AE94A526810786B46324602F041
:101A5000DAFA10B14FF0FF3082E797FBF6F0401E44
:101A60008BF8000000202870B4422AD0DF48007CA8
:101A700010F0080F25D0601C1DF800001DF80410A0
:101A800040EA012000B2A9F80000E01C1DF8001097
:101A9000A01C1DF8000041EA002000B2A9F80200D5
:101AA000601D1DF80010201D1DF8000041EA0020F7
:101AB00000B2A9F80400287840F008002870A01DA2
:101AC00084B2B44214D0C948007C10F0400F0FD04B
:101AD000601C1DF800001DF8041040EA012000B24F
:101AE000A8F80000287840F040002870A01C84B2BC
:101AF000B44214D0BD48007C10F0200F0FD0601C01
:101B00001DF800001DF8041040EA012000B2A8F8FA
:101B10000200287840F020002870A01C84B2B44253
:101B200014D0B248007C10F0100F0FD0601C1DF8CC
:101B300000001DF8041040EA012000B2A8F80400DB
:101B4000287840F010002870A01C84B2002007E71D
:101B5000F8B505460F461646A44890F8240010B97B
:101B60004FF0FF30F8BDA148807A10B94FF0FF3038
:101B7000F8E79E4A1268917A9C4A526810786B4640
:101B8000022202F040FA10B14FF0FF30EAE79DF870
:101B900001009DF8001040EA0124AC4203DA002065
:101BA0003070401EDEE7914840684088B4EB600F1B
:101BB00017DD8E4A1268517C8C4A526810786B4649
:101BC000012202F020FA10B14FF0FF30CAE79DF871
:101BD000000010F0100F04D0FFF7B9F86FF001000B
:101BE000C0E7824A1268D17A804A526810783B4630
:101BF000EAB202F008FA10B14FF0FF30B2E794FBFE
:101C0000F5F0401E30700020ACE70146774880F8C0
:101C10002210002070477CB5054674494968087851
:101C200001AB04220D2102F0EEF908B107207CBDC2
:101C30009DF80700C0F301109DF8041001F0E001C9
:101C400040EAE1008DF800009DF80700C0F3810034
:101C50009DF8051001F0E00140EAE1008DF8010077
:101C60009DF8070000F003009DF8061001F0E00168
:101C700040EAE1008DF8020000241CE01DF8040099
:101C800018B9002045F8240013E0594845F824000D
:101C900006E055F82400574907F004FB45F82400F6
:101CA0001DF80400401E10F0FF000DF80400F0D1F4
:101CB00000BF601CC4B2032CE0DB0020B7E72DE9B5
:101CC000FE4F06460F4600256846FFF7A4FF002496
:101CD00040E056F8240057F82410B0EB010A01D474
:101CE000514601E0CAF10001084607F07BFA83463D
:101CF0004FF08F4107F044F980465DF82400002141
:101D000007F000FA16D05DF82410404607F038F9C5
:101D100082464FF07E5107F0C9FB814629F0004A08
:101D20003548416A504607F090FB12D20120A0408E
:101D300005430EE03048C169404607F07FFA05D3FD
:101D40002D48016A404607F080FB02D20120A040E6
:101D50000543641C032CBCDB2846BDE8FE8F2DE93F
:101D6000FC5F06460F46002520494968087801AB0C
:101D700003220D2102F047F910B10720BDE8FC9FB6
:101D80009DF8040000F01F008DF804009DF8050088
:101D900000F01F008DF805009DF8060000F01F0000
:101DA0008DF8060000245FE056F8240057F8241050
:101DB000B0EB010B01D4594601E0CBF1000108461C
:101DC00007F010FA4FF08F41009007F0D9F88146E4
:101DD00001A8005DB8B30849086807F01BFA8346FC
:101DE0000146064807F0CCF880460EE01C000020B3
:101DF0007B14AE3E1D5A843FB896000800B04C4597
:101E0000FF49404607F04EFA804601A8005D401E9B
:101E100010F0FF0001A90855F2D14146484607F0ED
:101E2000AFF883464FF07E5107F040FB82462AF020
:101E3000004BF4488169584607F007FB13D2012094
:101E4000A04005430FE0FFE7EE480169484607F070
:101E5000F5F905D3EB484169484607F0F6FA02D296
:101E60000120A0400543641C032C9DDB284685E728
:101E70002DE9F74F92B006460C4601208DF8200060
:101E800000208DF82100E04A1268917CDE4A5268F9
:101E9000107808AB022202F004F920B14FF0FF30B5
:101EA00015B0BDE8F08FC820FEF70FFA00208DF8BE
:101EB0002000D54A1268D17BD34A5268107808AB0B
:101EC000012202F0EEF810B14FF0FF30E8E7CE4A01
:101ED00012685179CC4A5268107808AB012202F09E
:101EE000E0F810B14FF0FF30DAE7C74A1268917C92
:101EF000C54A5268107808AB012202F0D2F810B13E
:101F00004FF0FF30CCE7C04A1268D17DBE4A52681C
:101F1000107808AB012202F0C4F810B14FF0FF3086
:101F2000BEE7B94A12681179B74A5268107808AB0F
:101F3000012202F0B6F810B14FF0FF30B0E70C20EC
:101F40008DF82000B04A12681179AF4A52681078B3
:101F500008AB012202F0A5F810B14FF0FF309FE767
:101F60000F20FEF7B2F9A848806A407A8DF8200069
:101F7000A54A12689178A44A5268107808AB0122E9
:101F800002F08FF810B14FF0FF3089E79E48806A69
:101F9000007A8DF820009C4A126851789A4A52685B
:101FA000107808AB012202F07CF810B14FF0FF303E
:101FB00076E7149838B19448806A807A40F0E0005F
:101FC0008DF8200004E09048806A807A8DF8200027
:101FD0008D4A126891798C4A5268107808AB0122B8
:101FE00002F05FF810B14FF0FF3059E7149838B1A4
:101FF0008548806AC07A40F0E0008DF8200003E058
:102000008048C07A8DF820007F4A1268D1797E4AD4
:102010005268107808AB012202F043F810B14FF07B
:10202000FF303DE7149810B1C820FEF74EF940206C
:102030008DF82000744A12681179734A526810783A
:1020400008AB012202F02DF810B14FF0FF3027E766
:1020500078208DF820006C4A126851796A4A5268DB
:10206000107808AB012202F01CF810B14FF0FF30DD
:1020700016E764498889FEF728F900208DF82000CA
:10208000614A12685179604A5268107808AB01229F
:1020900002F007F810B14FF0FF3001E75A4A12681A
:1020A000917A594A5268107808AB022201F0ABFFCE
:1020B00010B14FF0FF30F3E69DF821009DF820109D
:1020C00040EA012006900C21069890FBF1F0C5B281
:1020D0000020B06070603060A06060602060079099
:1020E00065E0494A1268D17A474A5268107808ABCD
:1020F0000C2201F088FF10B14FF0FF30D0E69DF8C0
:1021000021009DF8201040EA012000B2ADF8100037
:102110009DF823009DF8221040EA012000B2ADF89E
:1021200012009DF825009DF8241040EA012000B21D
:10213000ADF81400BDF91010206808442060BDF906
:102140001210606808446060BDF91410A06808446B
:10215000A0609DF827009DF8261040EA012000B2FB
:10216000ADF808009DF829009DF8281040EA0120EC
:1021700000B2ADF80A009DF82B009DF82A1040EA45
:10218000012000B2ADF80C00BDF908103068084419
:102190003060BDF90A10706808447060BDF90C1019
:1021A000B0680844B0600798401CC0B20790079818
:1021B000A84296DB1348006803903768F81710228E
:1021C00011903846119903F081FFCDE900010023F9
:1021D000039A03F0A1FF2A460023CDE9040103F08E
:1021E0009BFF3060074800680390D6F804804FEAF0
:1021F000E870102210904046109903F067FF05E048
:1022000054E3853FB89600081C000020CDE900018A
:102210000023039A03F080FF2A460023CDE904013E
:1022200003F07AFF7060FA4800680390D6F80890CF
:102230004FEAE97010220F9048460F9903F046FFCD
:10224000CDE900010023039A03F066FF2A4600232C
:10225000CDE9040103F060FFB060ED4840680390F1
:10226000D4F800A04FEAEA7010220E9050460E9962
:1022700003F02CFFCDE900010023039A03F04CFF8B
:102280002A460023CDE9040103F046FF2060E04820
:1022900040680390D4F804B04FEAEB7010220D9020
:1022A00058460D9903F012FFCDE900010023039A6F
:1022B00003F032FF2A460023CDE9040103F02CFF8E
:1022C0006060D34840680390A068C1171022CDE930
:1022D0000B1003F0FBFECDE900010023039A03F08D
:1022E0001BFF2A460023CDE9040103F015FFA0607F
:1022F000A068002804DDA068A0F58030A06003E09D
:10230000A06800F58030A0600020C9E538B504461B
:10231000C04890F82400A04201D1002038BD24B369
:10232000BC4890F8250010B94FF0FF30F6E70020C8
:10233000FEF746FB0020FEF765FCB649C88CFEF7A9
:10234000CAFE00200090B349496808786B46012214
:10235000232101F0A6FE0121AE4880F824100120BF
:10236000FEF72EFBFEF7F3FC13E00020FEF728FB40
:10237000A848007C0090A749496808786B4601226C
:10238000232101F08EFE0021A24880F82410FEF7E0
:10239000DEFC0020C2E72DE9F04F8DB083460F46EA
:1023A00002200C909B4890F8240020B10020FFF7F9
:1023B000ADFF012600E0002603A8FFF7CEF905A82F
:1023C000FFF7EBF901A8FFF70CFA02A8FFF72EFAC6
:1023D000904890F80AA004A8FFF782FA002407E0CA
:1023E000002239465846FFF743FD00B902E0641C5D
:1023F000022CF5DB00BF022C01D1002528E00024CF
:1024000007E0012206A909A8FFF732FD00B902E0A2
:10241000641C022CF5DB00BF022C01D1002517E063
:1024200006A93846FFF74BFC00F0FF0809A95846FB
:10243000FFF795FC00F0FF090025B9F1000F01D16D
:1024400045F00105B8F1000F01D145F0020500BFCC
:10245000FF2070490872FF216E484172C1724FF629
:10246000FF71C181FF218172017401210173BDF8E7
:102470000C00FEF7BDFE9DF81400FEF778FEBDF8D7
:102480000400FEF77CFDBDF80800FEF724FE504670
:10249000FEF753FB9DF81000FEF73CFD16B101203E
:1024A000FFF734FF28460DB0BDE8F08FF8B50446BD
:1024B0000D46164616B94FF0FF30F8BD5548807AE4
:1024C00010B94FF0FF30F8E720128DF80000E0B2AD
:1024D0008DF801009DF8010028444E49496849895A
:1024E000884202DD4FF0FF30E7E74A4A1268117E6A
:1024F000484A526810786B46022201F0D2FD10B1B2
:102500004FF0FF30D9E7434A1268517D414A526883
:1025100010783346EAB201F0C4FD10B14FF0FF303D
:10252000CBE70020C9E7F8B504460D46164616B9B4
:102530004FF0FF30F8BD3748807A10B94FF0FF30C8
:10254000F8E720128DF80000E0B28DF801009DF848
:10255000010028442F4949684989884202DD4FF02B
:10256000FF30E7E72B4A1268117E2A4A526810783A
:102570006B46022201F095FD10B14FF0FF30D9E714
:10258000244A1268517D234A526810783346EAB2D1
:1025900001F039FD10B14FF0FF30CBE70020C9E763
:1025A0002DE9F04385B005460E46904699461948F8
:1025B00090F8250020B14FF0FF3005B0BDE8F08362
:1025C00016B94FF0FF30F8E7002427E0281B102849
:1025D00001DD102000E0281B87B232193946204661
:1025E000FFF764FF10B14FF0FF30E6E701AA39466C
:1025F0002046FFF798FF10B14FF0FF30DDE73019AC
:102600003A4601A903F064FE30B16FF00100D4E74F
:10261000B89600081C000020E01984B2AC42D5DB5B
:102620004FEA28208DF8000008F0FF008DF8010027
:10263000924A1268917E914A526810786B46022243
:1026400001F02FFD10B14FF0FF30B6E701218B48AC
:1026500080F82510A0F826900020AEE701468748B4
:1026600090F8240008700020704702464FF0FF30B9
:10267000704701464FF0FF307047F8B505460F46EA
:102680001446F4B3B5F5FF5F01DDFF2605E0202D0C
:1026900001DA012601E0C5F3471607B90127282C06
:1026A00002DD4FF0FF30F8BD7448407D28BB734811
:1026B00090F8240038B10020FFF728FE01216F4870
:1026C00080F8201003E000216C4880F820106B484F
:1026D0001630FFF742F869481830FFF75EF8674890
:1026E0001A30FFF77EF865481C30FFF79FF8634803
:1026F000817A81771F30FFF7F3F80020FEF760F949
:1027000000E07AE00020FEF779FC00208DF8000060
:102710005A4A12689178594A526810786B460122D9
:1027200001F0BFFC10B14FF0FF30BCE740208DF846
:102730000000524A1268D17B504A526810786B46AA
:10274000012201F0AEFC00B164E08DF800608DF86C
:1027500001704A4A1268117A484A526810786B46EA
:10276000022201F09EFC00B154E00520FDF7ADFD12
:102770004248407A072101EBC000C0B28DF800004A
:102780003E4A1268D1793D4A526810786B46012260
:1027900001F087FC00B13DE020208DF80000012C05
:1027A00003D100208DF801000EE0052C03DC012090
:1027B0008DF8010008E0142C03DC02208DF80100E4
:1027C00002E003208DF801009DF80100072101EBD4
:1027D0008010C0B28DF80100284A1268917C274A07
:1027E000526810786B46022201F05BFC00B111E0E8
:1027F000012122484175002055E7204A1632002168
:1028000003E0505C00B105E0491C0C29F9D34FF0FE
:10281000FF3048E7FF2019490872FF21174841722D
:10282000C1724FF6FF71C181FF21817201740121D4
:1028300001730146887FFEF780F91049C88AFEF7C8
:10284000D7FC0E49087EFEF792FC0C49488BFEF738
:1028500096FB0A49888BFEF73EFC0849C87FFEF7C5
:1028600059FB064890F8200010B10120FFF74EFDFB
:10287000002102484175002015E700001C000020DF
:1028800010B5C8234FF48062FB4940F6F630FFF7DD
:1028900087FE10BD10B586B00446F8A0006803900E
:1028A000F7A000680290F7A000680190F6A0006809
:1028B000009004F0030003A9085C8DF8140003A83D
:1028C000C4F3C101405C8DF8150003A8C4F3811165
:1028D000405C8DF8160004F0030002A9085C8DF836
:1028E000100002A8C4F3C101405C8DF8110002A8D9
:1028F000C4F38111405C8DF8120005AA032140F257
:102900002640FFF7D3FD18B14FF0FF3006B010BDE1
:1029100004AA032140F22A40FFF7C8FD10B14FF08E
:10292000FF30F3E7019805900098049014F0040F2D
:102930000BD09DF8140040F001008DF814009DF8B4
:10294000100040F001008DF8100014F0200F0BD0A3
:102950009DF8150040F001008DF815009DF811005C
:1029600040F001008DF8110014F4807F0BD09DF829
:10297000160040F001008DF816009DF8120040F09E
:1029800001008DF8120005AA03214FF48860FFF7BB
:102990008DFD10B14FF0FF30B8E704AA032140F2DB
:1029A0003140FFF783FD10B14FF0FF30AEE7B7487D
:1029B00004810020AAE72DE9FF470446B3480089B7
:1029C00000F0030054F820000190B048008910F096
:1029D000040F02D0019840420190AC480089C0F336
:1029E000C10054F820000290A848008910F0200F80
:1029F00002D0029840420290A4480089C0F381109E
:102A000054F820000390A148008910F4807F02D080
:102A10000398404203909E49019880FB015A1E2270
:102A20002846514603F065FB01909949029880FBC6
:102A300001671E223046394603F05BFB0290944941
:102A4000039880FB01891E224046494603F051FB52
:102A500003900198000E8DF800000198000C8DF88D
:102A600001000198000A8DF802000198C0B28DF8AB
:102A700003006A4604214FF47470FFF717FD20B17C
:102A80004FF0FF3004B0BDE8F0870298000E8DF8DB
:102A900000000298000C8DF801000298000A8DF8E1
:102AA00002000298C0B28DF803006A4604214FF478
:102AB0007570FFF7FBFC10B14FF0FF30E2E70398B1
:102AC000000E8DF800000398000C8DF801000398AB
:102AD000000A8DF802000398C0B28DF803006A4620
:102AE00004214FF47670FFF7E1FCCBE72DE9F04FBE
:102AF0008BB0074601A8FEF7CCFEBDF804600020AD
:102B00000F2208903046089903F0E0FA04460D467B
:102B10005E48008900F0030057F8200005905B48EC
:102B2000008910F0040F02D00598404205905748E4
:102B30000089C0F3C10057F820000690534800896F
:102B400010F0200F02D00698404206904F480089AE
:102B5000C0F3811057F8200007904C48008910F40A
:102B6000807F02D00798404207900598C117A0FBCC
:102B7000048201FB042100FB05101E220A9040463E
:102B80000A9903F0B6FA05900698C117A0FB0492C3
:102B900001FB042100FB051A1E224846514603F0A2
:102BA000A8FA06900798C117A0FB04B201FB042104
:102BB00000FB05101E2209905846099903F099FA66
:102BC00007900598000E8DF808000598000C8DF808
:102BD00009000598000A8DF80A000598C0B28DF822
:102BE0000B000698000E8DF80C000698000C8DF86E
:102BF0000D000698000A8DF80E000698C0B28DF8F8
:102C00000F000798000E8DF810000798000C8DF843
:102C100011000798000A8DF812000798C0B28DF8CD
:102C2000130002AA0C214FF42570FFF73FFC0BB0F4
:102C3000BDE8F08F30B585B0044616A207CA02ABD6
:102C400007C3C82C03DD4FF0FF3005B030BDC820EE
:102C500090FBF4F0401E85B2280A8DF80000E8B21F
:102C60008DF801006A46022140F21620FFF71EFC93
:102C7000B0B14FF0FF30E8E72D9700084CCD6C0065
:102C80000CC92C00365676002646660098020020B5
:102C900009E3CA02FEF2ABC4AAF1DFDFBBAFDFDF9C
:102CA00002AA0C2140F6C120FFF700FC10B14FF042
:102CB000FF30CAE7FE4884810020C6E70146FC4891
:102CC00080890880002070472DE9FC4706460F46A2
:102CD00016F0070F02D0B7F5C86F03DD4FF0FF30D5
:102CE000BDE8FC87384606F095FA8146F14906F0C2
:102CF00047F980466846FEF750FD9DF8000002281F
:102D000006D0042816D0082826D0102848D135E04F
:102D10004FF08D41404606F0C5FA814606F042FA72
:102D200084B2E549404606F0BDFA814606F03AFA1B
:102D300085B238E04FF08C41404606F0B3FA814648
:102D400006F030FA84B2DD49404606F0ABFA81461F
:102D500006F028FA85B226E04FF08B41404606F097
:102D6000A1FA814606F01EFA84B2D549404606F023
:102D700099FA814606F016FA85B214E04FF08A41BE
:102D8000404606F08FFA814606F00CFA84B2CD492F
:102D9000404606F087FA814606F004FA85B202E062
:102DA0004FF0FF309CE700BF20128DF80400E0B226
:102DB0008DF8050028128DF80600E8B28DF807009E
:102DC00016F0010F14D001AA02214FF4EA70FFF7A8
:102DD0006DFB10B14FF0FF3082E70DF106020221CA
:102DE0004FF49270FFF762FB10B14FF0FF3077E7BE
:102DF00016F0020F14D001AA02214FF4EC70FFF775
:102E000055FB10B14FF0FF306AE70DF106020221C9
:102E10004FF49470FFF74AFB10B14FF0FF305FE7BB
:102E200016F0040F14D001AA02214FF4EE70FFF740
:102E30003DFB10B14FF0FF3052E70DF106020221C9
:102E40004FF49670FFF732FB10B14FF0FF3047E7B9
:102E5000002045E738B504460020009014F0010F2B
:102E600004D09DF8000040F03000009014F0020FF4
:102E700004D09DF8000040F00C00009014F0040F06
:102E800004D09DF8000040F0030000906A46012144
:102E90004FF4A470FFF70AFB38BD38B50446012C87
:102EA00001DA012402E0042C00DD0424601EC0B21B
:102EB00000906A46012140F24F10FFF7F7FA38BD43
:102EC00038B50446052094FBF0F085B228128DF841
:102ED0000000E8B28DF801006A4602214FF4EF705D
:102EE000FFF7E4FA38BD38B50446052094FBF0F04E
:102EF00085B228128DF80000E8B28DF801006A460C
:102F000002214FF4ED70FFF7D1FA38BDF8B5054650
:102F10000E464FF47A7095FBF0F000FB06F4200E9D
:102F20008DF80000200C8DF80100200A8DF80200B9
:102F3000E0B28DF803006A4604214FF4AE70FFF74B
:102F4000B5FAF8BD38B50446052094FBF0F084B21C
:102F500020128DF80000E0B28DF801006A460221CF
:102F60004FF4AD70FFF7A2FA38BD38B5044605201E
:102F700094FBF0F084B220128DF80000E0B28DF8DE
:102F800001006A4602214FF4AC70FFF78FFA38BD9A
:102F900038B5044614B94FF0FF3038BD6A460421F5
:102FA0004FF45870FFF7BFFA10B14FF0FF30F4E75D
:102FB0009DF8000000069DF8011040EA01409DF8D0
:102FC000021040EA01209DF8031008432060002011
:102FD000E3E738B50446200E8DF80000200C8DF88C
:102FE0000100200A8DF80200E0B28DF803006A4665
:102FF00004214FF45870FFF759FA38BD38B504462C
:1030000014B94FF0FF3038BD6A4604214FF4717097
:10301000FFF789FA10B14FF0FF30F4E79DF8000098
:1030200000069DF8011040EA01409DF8021040EAB8
:1030300001209DF80310084300EB80008000206011
:103040000020E0E738B504461420B4FBF0F4200E6D
:103050008DF80000200C8DF80100200A8DF8020088
:10306000E0B28DF803006A4604214FF47170FFF757
:103070001DFA38BD38B5044664B120208DF8000033
:1030800028208DF8010030208DF8020038208DF8BE
:10309000030004E0A3220421684603F040F96A46D5
:1030A000042140F69E20FFF701FAFDF750FE38BDDF
:1030B0009802002000004843000040460000C04540
:1030C000000040450000C04438B5044664B1C0204B
:1030D0008DF80000C2208DF80100C4208DF8020098
:1030E000C6208DF8030004E08B220421684603F01B
:1030F00016F96A46042140F69820FFF7D7F9FDF744
:1031000026FE38BD3EB504466CB1FCA1D1E90020D5
:103110008968CDE9002002916A4609214FF4976041
:10312000FFF7C4F93EBDF8A2D2E900109268CDE9DC
:10313000010200916A4609214FF49760FFF7B6F942
:10314000F0E73EB5044602208DF80000CA208DF855
:103150000100E3208DF8020009208DF803006A4683
:1031600004216820FFF7A2F9A3208DF8000014F0D5
:10317000400F09D0C0208DF80100C8208DF8020052
:10318000C2208DF8030006E0A3208DF801008DF821
:1031900002008DF8030014F4C07F09D0C4208DF81C
:1031A0000400CC208DF80500C6208DF8060006E04E
:1031B000A3208DF804008DF805008DF80600A320EB
:1031C0008DF807008DF808008DF809006A460A217D
:1031D00040F6A720FFF76AF914F0030F03D0202070
:1031E0008DF8000002E0D8208DF800006A46012129
:1031F00040F6B620FFF75AF914F0200F03D0012053
:10320000FFF780FF02E00020FFF77CFF14F4C07F8F
:1032100021D014F4807F0CD0B2208DF800008B20D8
:103220008DF80100B6208DF802009B208DF8030078
:103230000BE0B0208DF8000080208DF80100B42054
:103240008DF8020090208DF803006A46042140F6B4
:10325000A220FFF72BF914F0010F24D0F8208DF8ED
:1032600000006A4601214FF40B60FFF71FF9FA21B5
:103270000720FFF729FD0720FFF7ECFD0120FFF7EE
:103280000CFE6420FFF71CFE4FF4FA70FFF72BFED4
:10329000C821A048FFF73AFE2820FFF753FE0A2076
:1032A000FFF763FE08E0D8208DF800006A46012190
:1032B0004FF40B60FFF7FAF814F0020F03D0D92097
:1032C0008DF8000002E0D8208DF800006A46012148
:1032D00040F23D70FFF7EAF814F0040F03D001202C
:1032E000FFF7F2FE02E00020FFF7EEFE14F0100FF1
:1032F00003D00120FFF7BEFE02E00020FFF7BAFE78
:1033000044F0080084494881FDF721FD00208249EE
:10331000887314F0400F03D00846807B801D8873AB
:1033200014F4C07F04D07C48807B801D7A49887368
:1033300014F0140F04D07848807B103076498873DD
:1033400014F0030F04D07448807B001D7249887309
:1033500000203EBD0146704840890880002070472B
:103360002DE9F0410446E07800F0C006E07800F076
:103370003F05607810F0010F13D0EF102846E917D1
:1033800005EB5171C910A5EBC101491C01F0FF0803
:103390006148006820B1604841460268384690475D
:1033A00000BF607810F0080F06D05B48406818B185
:1033B000B011594A516888470020BDE8F08110B526
:1033C00086B0044655A207CA03AB07C356A207CA74
:1033D0008DE80700012C09D0022C0ED103AA0B2185
:1033E00040F68220FFF762F806B010BD6A460B2156
:1033F00040F68220FFF75AF8F6E74FF0FF30F3E788
:103400002DE9F04F8DB00746884615469946DDE90F
:10341000166B0024002030803F49887B5A4605A95E
:10342000FEF796FB18B1601E0DB0BDE8F08F3A486C
:10343000408910F0140F7DD09DF8140000069DF80F
:10344000151040EA01409DF8161040EA01209DF851
:103450001710084328609DF8180000069DF8191001
:1034600040EA01409DF81A1040EA01209DF81B1027
:10347000084368609DF81C0000069DF81D1040EA96
:1034800001409DF81E1040EA01209DF81F100843DE
:10349000A8609DF8200000069DF8211040EA014038
:1034A0009DF8221040EA01209DF823100843E860AF
:1034B00004F11000C4B22868001401906868001478
:1034C0000290A86800140390E86800140490019822
:1034D0004043029901FB0100039901FB010004999B
:1034E00001FB010ABAF1706F02DBBAF1885F22DDDD
:1034F000FDF72DFC00203080401E95E7B8AAB38D63
:10350000B4980D355D000000B8AAAAAAB088C3C55A
:10351000C700000009E3CA0298020020D8B1B9F33D
:103520008BA391B609B4D900DAB1B9F38BA391B6E4
:10353000DAB4DA0005E0B6F9000040F480703080BB
:1035400000BF3448408910F0400F24D005A9601C0A
:10355000085C095D40EA012000B2A8F8000005A956
:10356000E01C095C05AAA01C105C41EA002000B226
:10357000A8F8020005A9601D095C201D105C41EA45
:10358000002000B2A8F80400A01DC4B2B6F90000E3
:1035900040F0080030801F48408910F4C07F21D0DF
:1035A00005A9601C085C095D40EA012000B2388072
:1035B00005A9E01C095C05AAA01C105C41EA0020DA
:1035C00000B2788005A9601D095C201D105C41EAED
:1035D000002000B2B880A01DC4B2B6F9000040F0CF
:1035E000700030800B48408910F0030F03D005A90C
:1035F0000819FFF7B5FE4846FCF779FE002013E7EF
:1036000001460448016000207047014601484160BE
:10361000002070479802002010B586B00020059069
:103620000490FC4A07CA01AB07C305AB0122752110
:10363000682000F0E8FC9DF81400682815D0F6A07A
:1036400002F08EFD00BFFF48006800F4E060FE4914
:1036500040EA010000F104004FF0E021C1F80C0D38
:10366000BFF3408F00BF00BFFEE700241FE001A8AA
:1036700000EB4400431C01A810F81410012268203C
:1036800000F00FFD01A810F8141004AB012268200F
:1036900000F0B9FC9DF8100001A901EB4401497844
:1036A000884203D04FF0FF3006B010BD641C052CDB
:1036B000DDD30020F8E770B588B002A905A8FEF7B1
:1036C0006AFE0446072C3FD101A8FEF7C5F805980D
:1036D00005F088FD0646019905F0E4FD054605F074
:1036E00045FD0590069805F07DFD0646019905F01B
:1036F000D9FD054605F03AFD0690079805F072FDE4
:103700000646019905F0CEFD054605F02FFD079010
:1037100005A8FFF750F96846FEF7BBF8BDF80010A2
:10372000029848430290BDF8001003984843039064
:10373000BDF8001004984843049002A8FFF7D6F99A
:10374000C2A002F00DFD02E0C9A002F009FD08B020
:1037500070BD014691F90020002A01DD00201EE025
:1037600091F90020002A01DA042018E091F90120E3
:10377000002A01DD012012E091F90120002A01DA7E
:1037800005200CE091F90220002A01DD022006E06C
:1037900091F90220002A01DA062000E00720704794
:1037A00070B505462846FFF7D4FF0446E81CFFF72E
:1037B000D0FF44EAC00084B2A81DFFF7CAFF44EA64
:1037C000801084B2204670BD10B5FDF753FDF0BBEC
:1037D000B0A002F0C5FC7820FDF7AFF910B9B6A093
:1037E00002F0BEFC7820FDF795FB10B9BBA002F0FB
:1037F000B7FC6420FDF76FFC10B9C2A002F0B0FC6A
:10380000FFF73EF810B9C9A002F0AAFCD448FFF7B0
:10381000C7FF0446FFF73EF810B9D2A002F0A0FCA3
:1038200040F27310FFF78DFC10B9D8A002F098FC9D
:103830006420FFF7FFF910B9DEA002F091FCFFF75A
:103840003AFF0120FEF762FD08B9E3A000E001E0C5
:1038500002F086FC10BD2DE9F04F97B000200A90D1
:10386000099008900FAB10AACDE9002315AB0BAA65
:1038700011A913A8FFF7C4FDBDF8400010F4807F24
:103880007ED00B9805F0AEFC04464FF09D4105F04C
:1038900077FBDA4908600C9805F0A4FC04464FF069
:1038A0009D4105F06DFBD64908600D9805F09AFC26
:1038B00004464FF09D4105F063FBD24908600E9825
:1038C00005F090FC04464FF09D4105F059FBCE49B0
:1038D0000860CA4801684FF0804005F0E3FC834669
:1038E000C8480168584605F0DDFC8146C4480168B7
:1038F0004FF0404005F0D6FC8346C3480168584667
:1039000005F0D0FC8246494605F0CCFA804605F029
:103910009DFA064604F03AFA4FF06632BB4BCDE909
:10392000060104F0B9FF044604F07EFD0890B54896
:1039300001684FF0804005F0B5FC0390B148016884
:10394000039805F0AFFC8246AD4801684FF0404057
:1039500005F0A8FC0390AA480168039805F0A2FCB2
:103960008346514605F0A2FD81464FF07E5105F099
:1039700099FA804605F06AFACDE906019F4800E011
:103980007FE101684FF0804005F08CFC83469C4845
:103990000168584605F086FC81469A4801684FF058
:1039A000804005F07FFC834697480168584605F043
:1039B00079FC8246494605F075FA804605F046FADC
:1039C000CDE90401DDE9062304F032FC04464FF0A2
:1039D00066328E4B04F060FF064604F025FD099028
:1039E00089480168006805F05DFC0390854801681E
:1039F000006805F057FC029081480168006805F0F6
:103A000051FC83467D480168006805F04BFC59462F
:103A10000190FDE024A300086D707536303530202C
:103A20006964206572726F722C2073797374656D8E
:103A30002077696C6C207265626F6F74202E2E2E59
:103A4000200D0A000CED00E00000FA0573657474A7
:103A5000696E67206269617320737563636573665D
:103A6000756C6C79202E2E2E2E2E2E0D0A00000045
:103A70006269617320686173206E6F74206265658E
:103A80006E206D6F646966696564202E2E2E2E2E61
:103A90002E0D0A006D707520696E697469616C691C
:103AA0007A6174696F6E20636F6D706C6574652EDA
:103AB0002E2E2E2E2E0D0A006D70755F7365745FAD
:103AC00073656E736F7220636F6D706C65746520C3
:103AD0002E2E2E2E2E2E0D0A000000006D70755F0A
:103AE000636F6E6669677572655F6669666F20638E
:103AF0006F6D706C657465202E2E2E2E2E2E0D0A85
:103B0000000000006D70755F7365745F73616D70A8
:103B10006C655F7261746520636F6D706C65746550
:103B2000202E2E2E2E2E2E0D0A000000646D705FAA
:103B30006C6F61645F6D6F74696F6E5F64726976DC
:103B400065725F6669726D7761726520636F6D7013
:103B50006C657465202E2E2E2E2E2E0D0A00000070
:103B600048000020646D705F7365745F6F726965F3
:103B70006E746174696F6E20636F6D706C657465CF
:103B8000202E2E2E2E2E2E0D0A000000646D705F4A
:103B9000656E61626C655F666561747572652063F0
:103BA0006F6D706C657465202E2E2E2E2E2E0D0AD4
:103BB00000000000646D705F7365745F6669666F16
:103BC0005F7261746520636F6D706C657465202E23
:103BD0002E2E2E2E2E0D0A006D70755F7365745F8C
:103BE000646D705F737461746520636F6D706C6574
:103BF0007465202E2E2E2E2E2E0D0A00540000202D
:103C0000580000205C0000206000002066A64C40A8
:103C100005F048F98246029905F048FC814603996F
:103C200005F044FC804605F011F906460F4645486C
:103C300001684548006805F035FB82464348016845
:103C40004348006805F02EFB8346514605F02AF9EB
:103C500081464FF0804105F025FB804605F0F6F8DF
:103C600032463B46CDE9040104F0E2FA4FF06632F9
:103C7000384BCDE9060104F00FFE044604F0D4FBF6
:103C80000A900A9805F0E2F806460F46099805F0F2
:103C9000DDF880468946089805F0D8F804460246C3
:103CA0000B462DA0CDE90089CDE9026702F058FA54
:103CB00017B0BDE8F08F2DE9FC474FF00008002059
:103CC0000190009001AB01224121682000F09BF996
:103CD0006B4601224221682000F095F99DF8001002
:103CE0009DF8042001EB022005F07CFA80464FF09D
:103CF0008E41404605F0A9FB05D24FF08F4140466A
:103D000005F0D4FB80461C49404605F039F9814650
:103D100005F09CF80646194A194B04F0B7FB044617
:103D200004F082FB8046404605F090F804460246C7
:103D30000B4614A002F014FA404605F017FABDE84D
:103D4000FC87000060000020540000205C00002080
:103D50005800002066A64C4050697463683A256696
:103D60002020526F6C6C3A256620205961773A25E5
:103D700066200D0A000000000000AA43A4703D0A5E
:103D8000D743424054656D70657261747572653ACF
:103D9000256620200000000008B514208DF80300DF
:103DA0004FF41060ADF8000003208DF80200694662
:103DB000D44800F0A5FC08BD052000E0401E002806
:103DC000FCD1704710B54FF48071CE4800F043FD30
:103DD000FFF7F2FF4FF40061CA4800F03CFDFFF727
:103DE000EBFF4FF48071C74800F01BFD10B94FF096
:103DF000FF3010BD4FF48071C24800F02EFDFFF778
:103E0000DBFF4FF40061BF4800F027FDFFF7D4FF50
:103E10004FF48071BB4800F004FD10B16FF0010059
:103E2000E7E70020E5E710B54FF48071B54800F0F2
:103E300014FDFFF7C1FF4FF40061B24800F00BFD25
:103E4000FFF7BAFF4FF48071AE4800F004FDFFF7B2
:103E5000B3FF10BD70B504464FF40061A94800F0EF
:103E6000FCFC002520E014F0800F05D04FF4807199
:103E7000A44800F0F0FC04E04FF48071A14800F089
:103E8000ECFC6006040EFFF797FF4FF400619D48BD
:103E900000F0E1FCFFF790FF4FF40061994800F05B
:103EA000DCFCFFF789FF6D1C082DDCDB4FF4807113
:103EB000944800F0D0FCFFF77FFF4FF40061914879
:103EC00000F0C9FCFFF778FF4FF480718D4800F0D7
:103ED000A8FC38B14FF400618A4800F0BEFC4FF0F6
:103EE000FF3070BD4FF40061864800F0B6FC002042
:103EF000F7E710B54FF48071824800F0ACFCFFF793
:103F00005BFF4FF400617F4800F0A5FCFFF754FF12
:103F10004FF400617B4800F0A0FCFFF74DFF10BD9F
:103F200070B54FF48071774800F095FC4FF4006154
:103F3000744800F092FC0024002518E04FF4006162
:103F4000704800F088FCFFF737FF6006040E4FF45E
:103F500080716C4800F065FC08B144F001044FF436
:103F60000061684800F079FCFFF726FF6D1C082D02
:103F7000E4DBFFF7BEFF204670BD10B54FF4807143
:103F8000604800F06AFCFFF717FF4FF400615D48DE
:103F900000F061FCFFF710FF4FF40061594800F09A
:103FA0005CFCFFF709FF10BD70B54FF480715548F8
:103FB00000F051FC4FF40061524800F04EFC002428
:103FC000002518E04FF400614E4800F044FCFFF774
:103FD000F3FE6006040E4FF480714A4800F021FCA5
:103FE00008B144F001044FF40061464800F035FC8C
:103FF000FFF7E2FE6D1C082DE4DBFFF7BEFF204655
:1040000070BD002070472DE9F04106460F4614466A
:104010001D46FFF7D7FE002141EA4601C8B2FFF76F
:1040200019FFFFF7EEFF18B14FF0FF30BDE8F08148
:104030003846FFF70FFFFFF7E4FF10B16FF0010004
:10404000F4E7FFF7BFFE012101EB4601C8B2FFF71D
:1040500001FFFFF7D6FF10B16FF00200E6E70BE0BB
:10406000012C03D1FFF75CFF287002E0FFF79CFFF3
:1040700028706D1C601EC4B2002CF1D1FFF7D3FE76
:104080000020D3E7F8B504460D4601260020009035
:104090006B463246E9B2E0B2FFF7B5FF9DF800008B
:1040A000F8BD2DE9F04105460E4617469846FFF744
:1040B00089FE002141EA4501C8B2FFF7CBFEFFF7B8
:1040C000A0FF18B14FF0FF30BDE8F0813046FFF798
:1040D000C1FEFFF796FF10B16FF00100F4E7002476
:1040E0000AE018F80400FFF7B5FEFFF78AFF10B1E9
:1040F0006FF00200E8E7641CBC42F2DBFFF793FEBE
:104100000020E1E70008014036490143364A1160CA
:10411000704770B5002100230F22C4784CB3324C95
:10412000246804F4E064C4F5E0644FEA1421C1F1AA
:10413000040322FA01F2447804FA03F1847804EAD1
:10414000020444EA01014FEA0111284C0678A15506
:10415000047804F01F054FF0010404FA05F4057813
:104160004FEA65154FF0E02606EB8505C5F80041DE
:1041700009E0047804F01F050124AC401C4D0678CA
:10418000761145F8264070BD1A4A0A4002431A4B80
:104190001A60704741B1194A126842EA00024FF0B2
:1041A000E023C3F8102D07E0144A126822EA000247
:1041B0004FF0E023C3F8102D7047042808D14FF0CA
:1041C000E021096941F004014FF0E022116107E0AC
:1041D0004FF0E021096921F004014FF0E022116164
:1041E000704700000000FA050CED00E000E400E07C
:1041F00080E100E080FFFF1F08ED00E010ED00E02F
:1042000010B50446F848844208D10121401501F058
:1042100022FE0021601501F01EFE17E0F3488442E3
:1042200008D10121001501F016FE0021201501F032
:1042300012FE0BE0EE48844208D10121C80301F0D0
:104240000AFE00214FF4004001F005FE10BD30B51C
:104250000246002000235068E64C20400D790C688F
:1042600044EA0524204350609068E34C2040D1E9A3
:1042700002542C434D7944EA450420439060D06AAF
:1042800020F470000C7C641EE4B2234340EA035027
:10429000D06230BD00210160017141718160C16057
:1042A00001210174704721B1826842F001028260ED
:1042B00003E0826822F001028260704721B18268C7
:1042C00042F48072826003E0826822F4807282602D
:1042D000704710B50023CBB21AB144681C43446048
:1042E00002E044689C43446010BD816841F00801CD
:1042F00081607047014600208A6812F0080F01D0E3
:10430000012000E000207047816841F004018160D5
:104310007047014600208A6812F0040F01D0012086
:1043200000E00020704721B1826842F4A002826060
:1043300003E0826822F4A0028260704701460020F8
:104340008A6812F4800F01D0012000E0002070473D
:1043500010B50A4600210023416821F46041531E34
:1043600041EA4331416010BD21B1426842F400622C
:10437000426003E0426822F4006242607047F0B598
:1043800004460D4600200021092D11DDE068A5F14D
:104390000A0606EB4607072606FA07F18843A5F149
:1043A0000A0606EB460603FA06F10843E0600CE055
:1043B000206905EB4507072606FA07F1884305EB58
:1043C000450603FA06F108432061072A0FDA606BFD
:1043D000561E06EB86071F2606FA07F18843561E6F
:1043E00006EB860605FA06F10843606322E00D2A13
:1043F0000FDA206BD61F06EB86071F2606FA07F199
:104400008843D61F06EB860605FA06F108432063AB
:1044100010E0E06AA2F10D0606EB86071F2606FAF9
:1044200007F18843A2F10D0606EB860605FA06F1B0
:104430000843E062F0BD21B1826842F480128260DC
:1044400003E0826822F48012826070470146C86CE3
:1044500080B2704769480068704721B1426842F4F1
:104460008062426003E0426822F4806242607047EA
:1044700021B1426842F48052426003E0426822F473
:104480008052426070470A460021816821F4E04171
:1044900011438160704721B1826842F4004282601A
:1044A00003E0826822F400428260704721B1826892
:1044B00042F40212826003E0826822F402128260F7
:1044C0007047014600208A6812F4001F01D00120C5
:1044D00000E000207047F0B5044615460020002299
:1044E0000026092911DDE068A1F10A0707EB470C56
:1044F000072707FA0CF29043A1F10A0707EB4707D9
:1045000003FA07F21043E0600CE0206901EB410C74
:10451000072707FA0CF2904301EB410703FA07F271
:1045200010432061A06BC0F30156EF1C06F1010C93
:10453000A7EB0C0707EB870C1F2707FA0CF2904339
:10454000EF1C06F1010CA7EB0C0707EB870701FA3C
:1045500007F21043A063F0BD10B50A460021002306
:10456000816B21F44011531E41EA0351816310BD58
:1045700010B5002303460B441A6010BD0246002309
:10458000134601F128000344186880B270470A46B8
:10459000002141681A4B1940114341607047416244
:1045A000826270470A460021416821F01F011143D1
:1045B0004160704738B11349096841F40001124A5B
:1045C000C2F8081406E00F49096821F400010E4AF8
:1045D000C2F8081470470246002013680B4201D04D
:1045E000012000E000207047002401400028014025
:1045F000003C0140FFFEF0FFFDF7F1FF4C240140BD
:10460000FFFD3FFF0824014000200140CA43026033
:10461000704770B502460020002300240B12556835
:10462000CEB205EA060415681D4202D00CB1012085
:1046300000E0002070BD00220A12D34303607047DF
:1046400010B50446CA48844208D10121042001F073
:1046500002FC0021042001F0FEFB46E0C548844234
:1046600008D10121082001F0F6FB0021082001F00B
:10467000F2FB3AE0C048844208D10121102001F049
:10468000EAFB0021102001F0E6FB2EE0BB4884424B
:1046900008D10121202001F0DEFB0021202001F0C3
:1046A000DAFB22E0B648844208D10121402001F023
:1046B000D2FB0021402001F0CEFB16E0B14884423D
:1046C00008D10121802001F0C6FB0021802001F0EB
:1046D000C2FB0AE0AC48844207D10121801501F0F9
:1046E000BAFB0021A01501F0B6FB10BD10B50121E9
:1046F000084601F0B0FB0021012001F0ACFB10BD29
:104700002DE9F04102460025002600200023002468
:10471000002791F803C00CF00F0591F803C01CF0BE
:10472000100F03D091F802C04CEA0505B1F800C0A3
:104730001CF0FF0F31D0146800202BE04FF0010C6B
:104740000CFA00F3B1F800C00CEA03069E4220D137
:1047500083004FF00F0C0CFA03F7BC4305FA03FC7F
:104760004CEA040491F803C0BCF1280F06D14FF0C5
:10477000010C0CFA00FCC2F814C00AE091F803C066
:10478000BCF1480F05D14FF0010C0CFA00FCC2F847
:1047900010C0401C0828D1D31460B1F800C0BCF18F
:1047A000FF0F34DD546800202EE000F1080C4FF0BC
:1047B000010808FA0CF3B1F800C00CEA03069E42A7
:1047C00021D183004FF00F0C0CFA03F7BC4305FA1C
:1047D00003FC4CEA040491F803C0BCF1280F05D196
:1047E00000F1080C08FA0CF8C2F8148091F803C024
:1047F000BCF1480F07D100F1080C4FF0010808FA8E
:104800000CF8C2F81080401C0828CED35460BDE8D4
:10481000F0814FF6FF710180022181700421C17087
:1048200070470246002093680B4201D0012000E04F
:10483000002070470146886880B270470246002019
:10484000D3680B4201D0012000E0002070470146F0
:10485000C86880B2704701617047416170470AB112
:10486000016100E041617047C16070474FF48032E0
:104870000A4382618161826182698269704702466E
:104880000020424B18684FF68073184040EA02102F
:1048900008433E4B186070473D49C8617047F0B50A
:1048A0000A46002300240021002500F00046B6F14E
:1048B000004F02D1354EF16901E0344E7168C0F30A
:1048C000034583B200F44016B6F5401F08D121F02D
:1048D00070612E4E766826F070662C4F7E6012E076
:1048E00000F48016B6F5801F06D1032606FA05F4FB
:1048F000A14341F0706106E0460D360103FA06F669
:10490000B14341F0706122B1460D360103FA06F65B
:10491000314300F00046B6F1004F02D11B4EF16169
:1049200001E01A4E7160F0BD30B500228B071C0FFC
:104930000F2303FA04F2154B08338C1053F824307C
:104940009343124C08348D1044F8253023468C10C4
:1049500053F824308C07240F00FA04F423430B4C43
:1049600008348D1044F8253030BD0A49086070477E
:1049700000080140000C01400010014000140140FB
:1049800000180140001C01400020014000000140CF
:1049900000002042DC00204210B50446FF4884425B
:1049A00008D10121C01401F056FA0021E01401F0F1
:1049B00052FAC4E0B4F1804F08D10121084601F059
:1049C00057FA0021012001F053FAB8E0F44884427C
:1049D00008D10121022001F04BFA0021022001F050
:1049E00047FAACE0EF48844208D10121042001F0ED
:1049F0003FFA0021042001F03BFAA0E0EA4884429B
:104A000008D10121082001F033FA0021082001F02B
:104A10002FFA94E0E548844208D10121102001F0EA
:104A200027FA0021102001F023FA88E0E0488442B0
:104A300008D10121202001F01BFA0021202001F0E3
:104A400017FA7CE0DB48844208D10121401401F0D0
:104A500002FA0021601401F0FEF970E0D6488442A9
:104A600009D10121C80401F0F6F900214FF400201A
:104A700001F0F1F963E0D148844209D10121080530
:104A800001F0E9F900214FF4801001F0E4F956E05B
:104A9000CB48844209D10121480501F0DCF900210D
:104AA0004FF4001001F0D7F949E0C648844208D11C
:104AB0000121402001F0DCF90021402001F0D8F96B
:104AC0003DE0C148844208D10121802001F0D0F9A5
:104AD0000021802001F0CCF931E0BC48844208D1AB
:104AE0000121801501F0C4F90021A01501F0C0F9E1
:104AF00025E0B748844209D10121080401F0ABF94F
:104B000000214FF4803001F0A6F918E0B14884424A
:104B100009D10121480401F09EF900214FF4003031
:104B200001F099F90BE0AC48844208D101218804D6
:104B300001F091F900214FF4802001F08CF910BDB3
:104B400000220288954B98420ED09A4B98420BD087
:104B5000B0F1804F08D0924B984205D0914B9842CB
:104B600002D0914B984204D14FF68F731A404B8874
:104B70001A438E4B984207D08D4B984204D04FF683
:104B8000FF431A40CB881A4302808B8883850B88A9
:104B90000385824B98420BD0864B984208D08C4BB1
:104BA000984205D08B4B984202D08B4B984201D152
:104BB0000B7A038601238382704770B5002400229C
:104BC0000023058C4FF6FE7635400584028C8388E1
:104BD000048B4FF68F752C40B51E2C400D882C434E
:104BE000751E2A400D892A434D882A436B4DA842E1
:104BF0000BD0704DA84208D0754DA84205D0754D18
:104C0000A84202D0744DA84213D14FF6F7752A403E
:104C10004D892A434FF6FB752A408D882A434FF66B
:104C2000FF652B404FF6FF552B408D892B43CD89D7
:104C30002B4383800483CD888586028470BD70B544
:104C4000002400220023058C4FF6EF7635400584C2
:104C5000028C8388048B48F6FF752C404FF6FF4585
:104C60002C400D882D0644EA15444FF6DF752A4086
:104C70000D892D0542EA15424D882D0542EA15425F
:104C8000464DA84202D04B4DA8421BD14FF67F752E
:104C90002A404D892D0542EA15424FF6BF752A403C
:104CA0008D882D0542EA15424FF6FF352B404FF215
:104CB000FF752B408D89AD0443EA1543CD89AD04C2
:104CC00043EA154383800483CD880587028470BD41
:104CD00070B5002400220023058C4FF6FF66354096
:104CE0000584028C8388848B4FF68F752C404FF699
:104CF000FC752C400D882C434FF6FF552A400D893A
:104D00002D0642EA15424D882D0642EA1542234DF2
:104D1000A84202D0274DA8421BD14FF2FF752A406E
:104D20004D892D0642EA15424FF6FF352A408D88FF
:104D30002D0642EA15424EF6FF752B404DF6FF75E3
:104D40002B408D892D0543EA1543CD892D0543EA76
:104D5000154383808483CD888587028470BD70B5B8
:104D6000002200230024058C4EF6FF763540058492
:104D7000038C8488828B48F6FF752A404FF6FF45E6
:104D80002A400D882D0642EA15424DF6FF752B404C
:104D90000D892D0743EA15434D881FE0002C014083
:104DA0000004004000080040000C004000100040DB
:104DB0000014004000340140004C0140005001400C
:104DC0000054014000180040001C0040002000403A
:104DD0000040014000440140004801402D0743EAE3
:104DE0001543F94DA84202D0F84DA84206D14BF622
:104DF000FF752C408D89AD0544EA1544848082837B
:104E0000CD88A0F84050038470BD828B4FF2FF33F1
:104E10001A408283828B0B0642EA134282837047D8
:104E2000F0B50C461546002200210026078C4EF6F0
:104E3000FF7C07EA0C070784828B018C27073E0C56
:104E400040F6FF473A402F0642EA17421F0742EA60
:104E50001742DD4FB8420ED0DC4FB8420BD0B0F154
:104E6000804F08D0DA4FB84205D0DA4FB84202D0AE
:104E7000D94FB84206D14DF6FF77394046F48057F6
:104E8000394305E047F6FF57394044F4805739432A
:104E900082830184F0BD828B4FF6F3731A408283C4
:104EA000828B0A4382837047F0B50C461546002278
:104EB00000210026078C4FF6FF6C07EA0C070784D9
:104EC000828B018C27063E0C4FF60C773A401F056B
:104ED00045EA17473A43BC4FB8420ED0BB4FB842E1
:104EE0000BD0B0F1804F08D0B94FB84205D0B94FC0
:104EF000B84202D0B84FB84206D14FF6FF573940FA
:104F000046F48077394305E04FF2FF57394044F4C7
:104F10008077394382830184F0BD028B4FF2FF33E7
:104F20001A400283028B0B0642EA13420283704747
:104F3000F0B50C461546002200210026078C4FF6DE
:104F4000EF7C07EA0C070784028B018C27053E0CD7
:104F500040F6FF473A401F0742EA17422F0642EA4F
:104F60001742994FB8420ED0984FB8420BD0B0F1CB
:104F7000804F08D0964FB84205D0964FB84202D025
:104F8000954FB84206D14FF6DF77394046F010070B
:104F9000394305E04FF65F77394044F01007394355
:104FA00002830184F0BD028B4FF6F3731A40028333
:104FB000028B0A4302837047F0B50C461546002267
:104FC0000021068C4FF6FE773E400684028B018C52
:104FD0004FF60C7632401E0545EA164632437A4EAD
:104FE000B0420ED0794EB0420BD0B0F1804F08D015
:104FF000774EB04205D0774EB04202D0764EB042E6
:1050000006D14FF6FD76314044F00106314305E00C
:105010004FF6F576314044F00106314302830184B6
:10502000F0BD70B505460C46674885420ED067480E
:1050300085420BD0B5F1804F08D06548854205D038
:105040006448854202D06448854200D100E000BF38
:10505000208850B92389A28861882846FFF7ACFFD1
:10506000E1882846FFF79FFF25E0208804280AD121
:105070002389A28861882846FFF75AFFE1882846DD
:10508000FFF74BFF17E0208808280AD12389A28860
:1050900061882846FFF708FFE1882846FFF7FBFEF6
:1050A00009E02389A28861882846FFF7B9FEE188D4
:1050B0002846FFF7AAFE70BD2DE9F04105460C46D3
:1050C00000260127608808B9022600E00026A08893
:1050D000012801D1022700E001272088A0B92389F7
:1050E000A28861882846FFF767FFE1882846FFF716
:1050F0005AFF23893A4631462846FFF719FFE188CF
:105100002846FFF70AFF13E02389A2886188284612
:10511000FFF70EFFE1882846FFF7FFFE23893A4696
:1051200031462846FFF748FFE1882846FFF73BFF56
:10513000BDE8F0810A884B881A438B881A43CB88D4
:105140001A430B891A434B891A438B891A43A0F8D7
:10515000442070474FF6FF71818000210180C1809B
:105160004180017270470021018041808180C180AF
:10517000018141818181C18170470021018041808D
:10518000012181800021C1800181704700210180BF
:1051900041808180C180018141818181704721B13D
:1051A000028842F00102028004E002884FF6FE739A
:1051B0001A400280704789B1B0F8442042F400429E
:1051C000A0F8442010E00000002C01400034014011
:1051D0000004004000080040000C0040B0F84420EB
:1051E000C2F30E02A0F84420704710B51AB18389AB
:1051F0000B43838104E08389CC43A4B223408381A1
:1052000010BD8182704741EA0203A0F84830704720
:1052100010B51AB183890B43838104E08389CC43A1
:10522000A4B22340838110BD01894FF6F87211406A
:10523000018170470A46002101894FF68F7319409A
:1052400011430181704730B504460D46294620467A
:10525000FFF7F0FF208940F00700208130BD2DE9E5
:10526000F04104460D4616461F46602D06D13B46CA
:10527000012231462046FFF75BFE05E03B46012256
:1052800031462046FFF798FE29462046FFF7D2FF19
:10529000208940F007002081BDE8F08130B50C4640
:1052A00000210189C9B21D0642EA1545254329435B
:1052B000018130BD2DE9F04105460E46174698465E
:1052C000002443463A4631462846FFF7E7FF2C893B
:1052D0004FF6F8710C4044F007044FF68F710C4004
:1052E00044F070042C81BDE8F081F0B504460D4611
:1052F00016461F463B46324629462046FFF7CEFF5C
:10530000208940F480402081F0BD01858282704771
:105310000A46002101884FF68F731940114301801E
:105320007047F0B50C4615461E46002100220023AA
:105330000189028B038C4FF6F877394021434FF6F1
:10534000FC473A4040F201173A434FF6DD773B40C5
:10535000370545EA17473B43018102830384F0BDCB
:105360000A460021018B4FF68F73194011430183C8
:1053700070470A460021018B48F6FF731940130657
:1053800041EA1341018370470A460021818B4FF6A1
:105390008F7319401143818370470A460021818B26
:1053A00048F6FF731940130641EA134181837047A1
:1053B00021B1028842F08002028004E002884FF6A8
:1053C0007F731A400280704721B1828842F0040244
:1053D000828004E082884FF6FB731A408280704717
:1053E00021B1828842F00802828004E082884FF670
:1053F000F7731A408280704721B1828842F001021F
:10540000828004E082884FF6FE731A4082807047E3
:105410000A460021018B4FF6F773194011430183AF
:1054200070470A460021018B4FF2FF7319401306A3
:1054300041EA1341018370470A460021818B4FF6F0
:10544000F77319401143818370470A460021818B0D
:105450004FF2FF731940130641EA134181837047ED
:105460000A460021018B4FF6FB731940114301835B
:1054700070470A460021018B4FF6FF33194013068F
:1054800041EA1341018370470A460021818B4FF6A0
:10549000FB7319401143818370470A460021818BB9
:1054A0004FF6FF331940130641EA134181837047D9
:1054B0000A460021018B4FF67F7319401143018387
:1054C00070470A460021018BC1F30E01130641EA21
:1054D0001341018370470A460021818B4FF67F7389
:1054E00019401143818370470A460021818BC1F323
:1054F0000E01130641EA1341818370470A460021D9
:10550000018C4FF6FD7319401143018470470A4620
:105510000021018C4FF6F773194011430184704745
:105520000A460021018C4FF6DF731940130541EA4A
:105530001341018470470A460021018C4FF67F73A6
:105540001940130541EA1341018470470A460021BE
:10555000018C4FF6FF531940130641EA13410184B1
:1055600070470A460021018C4FF2FF731940130661
:1055700041EA1341018470470A460021018C4DF62F
:10558000FF731940130741EA13410184704730B596
:10559000002301248C40A3B2048CDD43ADB22C4027
:1055A0000484048C02FA01F5ADB22C43048430BDAE
:1055B00030B5002304248C40A3B2048CDD43ADB28B
:1055C0002C400484048C02FA01F5ADB22C4304840F
:1055D00030BD70B503460020002418461830012560
:1055E0008D40ACB21D8CE643B6B235401D8409B186
:1055F000082909D100EB6100056825F070050560F8
:105600000568154305600CE00D1FADB200EB6500A9
:10561000056825F4E04505600568160645EA164567
:10562000056070BD21B1028842F00202028004E0F0
:1056300002884FF6FD731A400280704721B102883C
:1056400042F00402028004E002884FF6FB731A4025
:105650000280704721B1828842F08002828004E09B
:1056600082884FF67F731A408280704702884FF617
:10567000F7731A40028002880A43028070478288CA
:105680004FF68F731A40828082880A438280704767
:1056900002894FF6F8731A40028102890A43028197
:1056A000704702894FF67F731A40028102890A43CC
:1056B0000281704781847047818570478186704779
:1056C0000187704781877047A0F8401070470288B3
:1056D0004FF6FF431A40028002880A430280704757
:1056E0000146888E70470146088F70470146888FB3
:1056F00070470146B1F8400070470146888C7047FA
:105700000146088D704702460020138A0B4201D0E3
:10571000012000E000207047CA430282704730B584
:105720000246002000230024158A05EA010395891A
:1057300005EA010413B10CB1012000E0002030BDE6
:10574000CA4302827047000010B50446FC488442F8
:1057500009D10121880300F07EFB00214FF4804035
:1057600000F079FB32E0F748844209D10121480476
:1057700000F07EFB00214FF4003000F079FB25E0C3
:10578000F148844209D10121880400F071FB002115
:105790004FF4802000F06CFB18E0EC48844209D103
:1057A0000121C80400F064FB00214FF4002000F048
:1057B0005FFB0BE0E648844208D10121080500F0B8
:1057C00057FB00214FF4801000F052FB10BD2DE973
:1057D000F04786B005460E460024A24600BFA1460B
:1057E0000027B08900B100BF2F462C8A4CF6FF700D
:1057F0000440F08804432C82AC894EF6F310044038
:10580000B08831890843718908430443AC81AC8A6C
:105810004FF6FF400440B0890443AC8201A800F079
:1058200093FAC748874202D1DDF810A001E0DDF805
:105830000CA0A88910F4004F08D00AEBCA0000EBB6
:105840000A1031684900B0FBF1F807E00AEBCA0022
:1058500000EB0A1031688900B0FBF1F86420B8FB56
:10586000F0F004012009642101FB1089A88910F4DB
:10587000004F08D0322000EBC900B0FBF1F000F07F
:105880000700044308E0322000EB09106421B0FB5C
:10589000F1F000F00F0004432C8106B0BDE8F08762
:1058A0004FF41651016000218180C18001810C21DB
:1058B000418100218181704710B502460020108A85
:1058C0004FF2FF0318400B884C8823438C882343F6
:1058D000CC8823431843108210BD002101804180F1
:1058E0008180C180704721B1828942F40052828157
:1058F00004E082894DF6FF731A4082817047F0B54B
:1059000003460024002600250020A1F510676A3F09
:1059100000D100BF1846C1F3421401F01F06012751
:1059200007FA06F5012C01D10C3004E0022C01D15C
:10593000103000E014301AB107682F43076002E00E
:105940000768AF430760F0BD10B51AB1838A0B43F7
:10595000838204E0838ACC43A4B22340838210BDB7
:10596000028A4FF6F0731A400282028A0A430282C8
:10597000704782894FF2FF731A40828182890A43FD
:105980008281704721B1828942F00202828104E063
:1059900082894FF6FD731A4082817047028A4FF662
:1059A000DF731A400282028A0A430282704721B1E1
:1059B000028A42F48042028204E0028A4BF6FF73BC
:1059C0001A4002827047C1F3080282807047014684
:1059D0008888C0F308007047818941F00101818106
:1059E0007047028BD2B20283028B42EA0122028309
:1059F0007047028B02F47F420283028B0A430283C8
:105A0000704721B1828A42F02002828204E0828AB9
:105A10004FF6DF731A408282704721B1828A42F0CA
:105A20001002828204E0828A4FF6EF731A4082826B
:105A3000704721B1828A42F00802828204E0828AA1
:105A40004FF6F7731A408282704721B1828942F47F
:105A50000042828103E08289C2F30E028281704794
:105A600021B1828A42F40062828204E0828A4FF28B
:105A7000FF731A4082827047828A4FF6FB731A4086
:105A80008282828A0A438282704721B1828A42F0EE
:105A90000202828204E0828A4FF6FD731A408282FB
:105AA000704702460020B1F5007F00D100BF138887
:105AB0000B4201D0012000E00020704701F4007289
:105AC000B2F5007F00D100BFCA430280704770B5B5
:105AD00002460024002300250020A1F510666A3E3E
