:020000040800F2
:100000004807002001010008650F0008670F00087D
:100010006B0F00086F0F0008730F0008000000004E
:10002000000000000000000000000000770F000842
:10003000790F0008000000007B0F00087D0F00080A
:100040001B0100081B0100081B0100081B01000820
:100050001B0100081B0100081B0100081B01000810
:100060001B0100081B0100081B0100081B01000800
:100070001B0100081B0100081B0100081B010008F0
:100080001B0100081B0100081B0100081B010008E0
:100090001B0100081B0100081B0100081B010008D0
:1000A0001B0100081B0100081B0100081B010008C0
:1000B0001B0100081B0100081B0100081B010008B0
:1000C0001B0100081B0100081B0100081B010008A0
:1000D0001B010008850F00081B0100081B01000818
:1000E0001B0100081B0100081B010008DFF80CD0F1
:1000F00001F082F800480047DD0E000848070020A4
:100100000648804706480047FEE7FEE7FEE7FEE7B1
:10011000FEE7FEE7FEE7FEE7FEE7FEE7DD1000088C
:10012000ED00000830B523480068234AB0FBF2F127
:10013000B1F1807F01D301201DE021F07F40401EFE
:100140004FF0E022506150170F22002807DA130702
:100150001D0E1A4B00F00F04241F1D5503E013075A
:100160001C0E174B1C5400BF00204FF0E022906182
:1001700007201061002008B100BFFEE730BD114923
:10018000086000BF0F4909680029FBD1704700B51E
:1001900002464FF47A7102FB01F0FFF7F0FF00BD59
:1001A0000848006820B107480068401E05490860FB
:1001B000704700002003002040420F0018ED00E0CF
:1001C00000E400E00000002010B50121084600F026
:1001D0000CFC0121044800F022FC012145F20D2015
:1001E00000F010FC10BD00000100200010B52F48E9
:1001F00000F070FC4FF400702D4908801820C87082
:10020000032088702B4800F04BF94FF48060284998
:1002100008800420C870274800F042F94FF4E1300C
:100220002549086000208880C880088188810C20CA
:1002300048811E4800F091FC012240F225511B48E4
:1002400000F023FD0121194800F013FD10BD08B591
:100250004FF4E06000F056F825208DF800000020F3
:100260008DF8020001208DF80300684600F04FF879
:1002700008BD70B504460D46A1B20C4800F066FDFD
:1002800000BF4021094800F0CFFD0028F9D02046EA
:1002900070BD10B5044600BF2021044800F0C4FD25
:1002A0000028F9D0014800F055FD10BD003801408C
:1002B00004000020000801403803002008B5022097
:1002C0008DF8020010208DF803000001ADF8000049
:1002D00069460B4800F0E4F84FF48071084800F0DC
:1002E0008AF908BD10B54FF48071054800F085F912
:1002F00010BD10B54FF48071014800F07CF910BDBD
:10030000000C014031490143314A1160704770B51A
:10031000002100230F22C4780CB32D4C246804F470
:10032000E064C4F5E064210AC1F10403CA404478E2
:1003300004FA03F18478144021430901254C06781E
:10034000A155047804F01F050124AC4005786D1117
:100350004FF0E02606EB8505C5F8004109E004787A
:1003600004F01F050124AC401B4D0678761145F8BA
:10037000264070BD194A0A400243154B1B1F1A60E4
:10038000704739B1124A121D12680243104B1B1DEF
:100390001A6006E00E4A121D126882430C4B1B1DA8
:1003A0001A607047042808D14FF0E021096941F034
:1003B00004014FF0E022116107E04FF0E0210969EC
:1003C00021F004014FF0E022116170470000FA05AE
:1003D0000CED00E000E400E080E100E080FFFF1FA2
:1003E00010B50446CA48844208D10121042000F017
:1003F00023FB0021042000F01FFB46E0C548844297
:1004000008D10121082000F017FB0021082000F08E
:1004100013FB3AE0C048844208D10121102000F0CB
:100420000BFB0021102000F007FB2EE0BB488442AC
:1004300008D10121202000F0FFFA0021202000F047
:10044000FBFA22E0B648844208D10121402000F0A6
:10045000F3FA0021402000F0EFFA16E0B1488442A0
:1004600008D10121802000F0E7FA0021802000F06F
:10047000E3FA0AE0AC48844207D10121801500F07C
:10048000DBFA0021A01500F0D7FA10BD10B501214C
:10049000084600F0D1FA0021012000F0CDFA10BD8D
:1004A0002DE9F0410246002500260020002300240B
:1004B000002791F803C00CF00F0591F803C01CF061
:1004C000100F03D091F802C04CEA050591F800C066
:1004D000BCF1000F31D0146800202BE04FF0010C6C
:1004E0000CFA00F3B1F800C00CEA03069E4220D1DA
:1004F00083004FF00F0C0CFA03F7BC4305FA03FC22
:100500004CEA040491F803C0BCF1280F06D14FF067
:10051000010C0CFA00FCC2F814C00AE091F803C008
:10052000BCF1480F05D14FF0010C0CFA00FCC2F8E9
:1005300010C0401C0828D1D31460B1F800C0BCF131
:10054000FF0F34DD546800202EE000F1080C4FF05E
:10055000010808FA0CF3B1F800C00CEA03069E4249
:1005600021D183004FF00F0C0CFA03F7BC4305FABE
:1005700003FC4CEA040491F803C0BCF1280F05D138
:1005800000F1080C08FA0CF8C2F8148091F803C0C6
:10059000BCF1480F07D100F1080C4FF0010808FA30
:1005A0000CF8C2F81080401C0828CED35460BDE877
:1005B000F0814FF6FF710180022181700421C1702A
:1005C00070470246002093680B4201D0012000E0F2
:1005D000002070470146886880B2704702460020BC
:1005E000D3680B4201D0012000E000207047014693
:1005F000C86880B2704701617047416170470AB1B5
:10060000016100E041617047C16070474FF4803282
:100610000A43826181618261826982697047024610
:100620000020424B18684FF68073184040EA0210D1
:1006300008433E4B186070473D49C8617047F0B5AC
:100640000A46002300240021002500F00046B6F1F0
:10065000004F02D1354EF16901E0344E7168C0F3AC
:10066000034583B200F44016B6F5401F08D121F0CF
:1006700070612E4E766826F070662C4F7E6012E018
:1006800000F48016B6F5801F06D1032606FA05F49D
:10069000A14341F0706106E0460D360103FA06F60B
:1006A000B14341F0706122B1460D360103FA06F6FE
:1006B000314300F00046B6F1004F02D11B4EF1610C
:1006C00001E01A4E7160F0BD30B500228B071C0F9F
:1006D0000F2303FA04F2154B08338C1053F824301F
:1006E0009343124C08348D1044F8253023468C1067
:1006F00053F824308C07240F00FA04F423430B4CE6
:1007000008348D1044F8253030BD0A490860704720
:1007100000080140000C014000100140001401409D
:1007200000180140001C0140002001400000014071
:1007300000002042DC002042DB48006840F001005D
:10074000D949086008464068D8490840D6494860F9
:1007500008460068D6490840D34908600846006842
:1007600020F4802008600846406820F4FE004860BD
:100770004FF41F0088607047CB49096821F480312D
:10078000C94A11601146096821F480211160B0F551
:10079000803F03D0B0F5802F0ED106E0C249096832
:1007A00041F48031C04A116007E0BF49096841F453
:1007B000A021BD4A116000E000BF00BF704710B526
:1007C00001460022002300204A11012A02D1B64C22
:1007D000236806E0022A02D1B34C236A01E0B24C3E
:1007E000636A01F01F02012494401C4201D00120E1
:1007F00000E0002010BD70B500240025002600BFD9
:100800003120FFF7DCFF0646641CB4F5A06F01D071
:10081000002EF5D03120FFF7D2FF08B1012500E00E
:100820000025284670BD014600209F4A106820F030
:10083000F80040EAC100106070479E4908607047A8
:1008400002460020984B586820F47C1042EA0103CD
:100850001843954B586070479649086670470146A3
:100860000020914A506820F0030008435060704710
:100870008D48406800F00C007047014600208A4A0D
:10088000506820F0F0000843506070470146002097
:10089000854A506820F4E060084350607047014684
:1008A0000020814A506820F4605040EAC100506046
:1008B000704729B17C4A527A02437B4B5A7204E05A
:1008C000794A527A8243784B5A7270477A49086063
:1008D000704701460020744A506820F440400843A5
:1008E000506070470021754A11706F4A82F82010DD
:1008F000012802D0042808D103E001216F4A1170B9
:1009000004E005216D4A117000E000BF00BF704790
:100910006B49086070476449096A0143624A116281
:100920007047674944390860704730B5002100229C
:10093000002400235C4D6D6805F00C0121B10429F1
:1009400005D0082923D105E05E4D056022E05D4D0C
:1009500005601FE0544D6D6805F47012524D6D68CE
:1009600005F48034022505EB92421CB9564D5543DF
:1009700005600BE04C4D6D6815F4003F03D0524DFF
:100980005543056002E04F4D5543056002E04D4D73
:10099000056000BF00BF444D6D6805F0F001090916
:1009A0004A4D6B5C0568DD4045603F4D6D6805F460
:1009B000E061090A454D6B5C4568DD4085603A4D54
:1009C0006D6805F46051C90A404D6B5C4568DD40B7
:1009D000C560354D6D6805F44041890B3C4D6B5C3D
:1009E000C568B5FBF3F5056130BD29B12E4A5269E2
:1009F00002432D4B5A6104E02B4A526982432A4B31
:100A00005A61704729B1284A92690243264B9A617C
:100A100004E0254A92698243234B9A61704729B1C9
:100A2000214AD2690243204BDA6104E01E4AD269AE
:100A300082431D4BDA61704729B11B4AD2680243D9
:100A4000194BDA6004E0184AD2688243164BDA6028
:100A5000704729B1144A12690243134B1A6104E02A
:100A6000114A12698243104B1A6170471449403988
:100A7000086070470F49C86470470B49C8717047D8
:100A80000948406A40F08070074948627047014653
:100A90000020054A92680A4201D0012000E00020AF
:100AA0007047014988727047001002400000FFF84B
:100AB000FFFFF6FE00004242D800424220100240F2
:100AC0008004424200127A0000093D000800002024
:100AD0001800002010B50446FB48844209D10121CA
:100AE0008803FFF7A9FF00214FF48040FFF7A4FF20
:100AF00032E0F648844209D101214804FFF7A9FFFA
:100B000000214FF40030FFF7A4FF25E0F0488442B5
:100B100009D101218804FFF79CFF00214FF48020B8
:100B2000FFF797FF18E0EB48844209D10121C80480
:100B3000FFF78FFF00214FF40020FFF78AFF0BE043
:100B4000E548844208D101210805FFF782FF002112
:100B50004FF48010FFF77DFF10BD2DE9F04786B000
:100B600005460E460024A24600BFA1460027B089D4
:100B700000B100BF2F462C8A4CF6FF700440F0886D
:100B800004432C82AC894EF6F3100440B0883189BE
:100B90000843718908430443AC81AC8A4FF6FF4097
:100BA0000440B0890443AC8201A8FFF7BEFEC648EA
:100BB000874202D1DDF810A001E0DDF80CA0A88981
:100BC00010F4004F08D00AEBCA0000EB0A1031689D
:100BD0004900B0FBF1F807E00AEBCA0000EB0A108D
:100BE00031688900B0FBF1F86420B8FBF0F0040133
:100BF0002009642101FB1089A88910F4004F08D056
:100C0000322000EBC900B0FBF1F000F00700044314
:100C100008E0322000EB09106421B0FBF1F000F095
:100C20000F0004432C8106B0BDE8F0874FF4165145
:100C3000016000218180C18001810C21418100215E
:100C40008181704710B502460020108A4FF2FF03E1
:100C500018400B884C8823438C882343CC8823433B
:100C60001843108210BD0021018041808180C18025
:100C7000704721B1828942F40052828104E0828966
:100C80004DF6FF731A4082817047F0B50346002489
:100C9000002600250020A1F510676A3F00D100BFA3
:100CA0001846C1F3421401F01F06012707FA06F5A2
:100CB000012C01D10C3004E0022C01D1103000E0F5
:100CC00014301AB107682F43076002E00768AF438A
:100CD0000760F0BD1AB1838A0B43838202E0838AE6
:100CE0008B4383827047028A4FF6F0731A40028268
:100CF000028A0A430282704782894FF2FF731A40C8
:100D0000828182890A438281704721B1828942F0BF
:100D10000202828104E082894FF6FD731A408281CB
:100D20007047028A4FF6DF731A400282028A0A4332
:100D30000282704721B1028A42F48042028204E0BA
:100D4000028A4BF6FF731A4002827047C1F3080211
:100D50008280704701468888C0F308007047818907
:100D600041F0010181817047028BD2B20283028B74
:100D700042EA012202837047028B02F47F4202831F
:100D8000028B0A430283704721B1828A42F020021B
:100D9000828204E0828A4FF6DF731A4082827047B3
:100DA00021B1828A42F01002828204E0828A4FF6E8
:100DB000EF731A408282704721B1828A42F00802A2
:100DC000828204E0828A4FF6F7731A40828270476B
:100DD00021B1828942F40042828103E08289C2F318
:100DE0000E028281704721B1828A42F400628282BF
:100DF00004E0828A4FF2FF731A4082827047828A2F
:100E00004FF6FB731A408282828A0A4382827047BD
:100E100021B1828A42F00202828204E0828A4FF685
:100E2000FD731A408282704702460020B1F5007FB0
:100E300000D100BF13880B4201D0012000E0002048
:100E4000704701F40072B2F5007F00D100BFCA43C1
:100E50000280704770B50246002400230025002060
:100E6000A1F510666A3E00D100BFC1F3421501F042
:100E70001F03012606FA03F3012D02D196893340A0
:100E800006E0022D02D1168A334001E0968A3340F3
:100E90000C12012606FA04F41688344013B10CB182
:100EA000012000E0002070BD10B500220023A1F554
:100EB00010646A3C00D100BF0A1201249440A3B21E
:100EC000DC43048010BD00000038014000440040B5
:100ED00000480040004C00400050004000F0FEF888
:100EE000FFF772F9FFF7EAF9FFF71CF9FFF77EF950
:100EF000FFF7ADF921E011480078F0B100200F496B
:100F0000087000210E480088401E0E4A11540E49F8
:100F1000104600F063F910B9FFF7E4F90AE00B4955
:100F2000084800F05BF910B9FFF7E3F902E008A008
:100F300000F092F9002002490880DCE71D03002040
:100F40001A0300201C0000201B0100201A020020B0
:100F5000756E6B6E6F7720636F6D6D616E64200DC3
:100F60000A000000704700BFFEE700BFFEE700BFB9
:100F7000FEE700BFFEE770477047704710B5FFF708
:100F80000FF910BD10B540F225511B48FFF762FF65
:100F900000282FD040F225511748FFF785FF16484B
:100FA000FFF7D8FE0D2805D101201449087014A0C0
:100FB00000F052F91048FFF7CDFE082802D111A029
:100FC00000F04AF90C48FFF7C5FE04460E490A78BE
:100FD0000978491C0C4B19700C49501822460CA179
:100FE00000F04AF90848007807490870214602488D
:100FF000FFF7ACFE10BD0000003801401D030020CB
:101000000D0A0000082000001A0300201C00002028
:101010002563000000210020674A126842F48032F4
:10102000654B1A6000BF644A126802F40030491C24
:1010300010B9B1F5A06FF6D15F4A126812F4003F03
:1010400001D0012000E00020012842D15B4A126853
:1010500042F01002594B1A601A46126822F003023D
:101060001A601A46126842F002021A60524A526826
:10107000514B5A601A4652685A601A46526842F4F6
:1010800080625A601A46526822F47C125A601A46EC
:10109000526842F4E8125A601A46126842F08072AE
:1010A0001A6000BF444A126812F0007FFAD0424A28
:1010B000526822F00302404B5A601A46526842F0CE
:1010C00002025A6000BF3C4A526802F00C02082A31
:1010D000F9D1704710B5FFF79DFF10BD10B5364828
:1010E000006840F00100344908600846406834490F
:1010F00008403149486008460068324908402E4996
:1011000008600846006820F48020086008464068AF
:1011100020F4FE0048604FF41F008860FFF7DAFFFC
:101120004FF000602849086010BD10B50021002074
:101130000022214B5B6803F00C0121B1042906D089
:10114000082928D107E0214B214C236027E01F4BC1
:101150001F4C236023E0184B5B6803F47010164BA0
:101160005B6803F48032022303EB904022B9194BF1
:101170004343174C23600DE00F4B5B6813F4003FB3
:1011800004D0144B4343124C236003E00F4B434302
:101190000F4C236003E00D4B0D4C236000BF00BFDC
:1011A000054B5B68C3F303130B4CE15C084B1B68F6
:1011B000CB40074C236010BD0010024000200240CD
:1011C0000000FFF8FFFFF6FE08ED00E000127A00D5
:1011D0002003002000093D002403002010B5002258
:1011E00000E0521C835C8C5CA34201D1002BF8D13F
:1011F000D8B2E1B2401A10BD064C074D06E0E068D7
:1012000040F0010394E8070098471034AC42F6D34D
:10121000FEF770FF98130008B813000830B58C185B
:1012200010F8012B12F00F0301D110F8013B120945
:1012300006D110F8012B03E010F8015B01F8015B07
:101240005B1EF9D101E001F8013B521EFBD1A14226
:10125000E6D3002030BD00000FB4054B10B503A944
:10126000044A029800F02BF810BC5DF814FB000053
:1012700073020008340300200FB4084B10B504A912
:1012800002AA039800F01BF8044602A9002000F00F
:101290007EF8204610BC5DF814FB00008F13000898
:1012A00002E008C8121F08C1002AFAD1704770472F
:1012B000002001E001C1121F002AFBD170472DE977
:1012C000F84F9946924688460546002759E025285A
:1012D00001D0514623E0002315F8011F18462E299E
:1012E00015D115F8011F04232A290DD06FF02F0204
:1012F0002978A1F13004092C09D800EB800002EB19
:10130000400008446D1CF3E758F8040B6D1C2A7864
:1013100072B3632A08D0732A10D0514610464A4649
:10132000904707F101072BE018F8042B8DF80020F7
:1013300000218DF801106E46012103E058F8046B7E
:101340004FF0FF315A074FF0000401D409E0641C4C
:1013500084420BDA8C42FADB325D002AF7D105E0D9
:10136000641C8C42FCDB305D0028F9D1274405E089
:101370000AE016F8010B51464A469047641EF8D21F
:101380006D1C28780028A2D13846BDE8F88F0A687D
:10139000531C0B6010707047B81300080000002049
:1013A000380300001C120008EC130008380300206A
:1013B00010040000B0120008D10012FF0102030463
:1013C0000102030406070809020406083007FA6C44
:1013D0006564206F6E08FF6C6564206F66663194EB
:0C13E000A24A0459010203040607080990
:04000005080000ED02
:00000001FF
